{
  "contractName": "Adoption",
  "abi": [
    {
      "constant": true,
      "inputs": [
        {
          "name": "",
          "type": "uint256"
        }
      ],
      "name": "adopters",
      "outputs": [
        {
          "name": "",
          "type": "address"
        }
      ],
      "payable": false,
      "stateMutability": "view",
      "type": "function"
    },
    {
      "inputs": [],
      "payable": false,
      "stateMutability": "nonpayable",
      "type": "constructor"
    },
    {
      "constant": false,
      "inputs": [
        {
          "name": "petId",
          "type": "uint256"
        }
      ],
      "name": "adopt",
      "outputs": [
        {
          "name": "",
          "type": "uint256"
        }
      ],
      "payable": false,
      "stateMutability": "nonpayable",
      "type": "function"
    },
    {
      "constant": true,
      "inputs": [],
      "name": "getAdopters",
      "outputs": [
        {
          "name": "",
          "type": "address[16]"
        }
      ],
      "payable": false,
      "stateMutability": "view",
      "type": "function"
    },
    {
      "constant": false,
      "inputs": [
        {
          "name": "petId",
          "type": "uint256"
        }
      ],
      "name": "cancelAdoption",
      "outputs": [],
      "payable": false,
      "stateMutability": "nonpayable",
      "type": "function"
    }
  ],
  "bytecode": "0x608060405234801561001057600080fd5b5033601060006101000a81548173ffffffffffffffffffffffffffffffffffffffff021916908373ffffffffffffffffffffffffffffffffffffffff160217905550610490806100616000396000f300608060405260043610610062576000357c0100000000000000000000000000000000000000000000000000000000900463ffffffff1680633bd31320146100675780633de4eb171461009457806343ae80d3146100e75780638588b2c514610154575b600080fd5b34801561007357600080fd5b5061009260048036038101908080359060200190929190505050610195565b005b3480156100a057600080fd5b506100a96102ac565b6040518082601060200280838360005b838110156100d45780820151818401526020810190506100b9565b5050505090500191505060405180910390f35b3480156100f357600080fd5b506101126004803603810190808035906020019092919050505061032d565b604051808273ffffffffffffffffffffffffffffffffffffffff1673ffffffffffffffffffffffffffffffffffffffff16815260200191505060405180910390f35b34801561016057600080fd5b5061017f60048036038101908080359060200190929190505050610362565b6040518082815260200191505060405180910390f35b3373ffffffffffffffffffffffffffffffffffffffff16601060009054906101000a900473ffffffffffffffffffffffffffffffffffffffff1673ffffffffffffffffffffffffffffffffffffffff1614151561025a576040517f08c379a000000000000000000000000000000000000000000000000000000000815260040180806020018281038252600d8152602001807f6d757374206265206f776e65720000000000000000000000000000000000000081525060200191505060405180910390fd5b6000808260108110151561026a57fe5b0160006101000a81548173ffffffffffffffffffffffffffffffffffffffff021916908373ffffffffffffffffffffffffffffffffffffffff16021790555050565b6102b4610440565b6000601080602002604051908101604052809291908260108015610323576020028201915b8160009054906101000a900473ffffffffffffffffffffffffffffffffffffffff1673ffffffffffffffffffffffffffffffffffffffff16815260200190600101908083116102d9575b5050505050905090565b60008160108110151561033c57fe5b016000915054906101000a900473ffffffffffffffffffffffffffffffffffffffff1681565b60008082101580156103755750600f8211155b15156103e9576040517f08c379a000000000000000000000000000000000000000000000000000000000815260040180806020018281038252600c8152602001807f57726f6e6720706574204944000000000000000000000000000000000000000081525060200191505060405180910390fd5b336000836010811015156103f957fe5b0160006101000a81548173ffffffffffffffffffffffffffffffffffffffff021916908373ffffffffffffffffffffffffffffffffffffffff160217905550819050919050565b610200604051908101604052806010906020820280388339808201915050905050905600a165627a7a7230582078fbdbe3d4d5856024f0747cf44a142175405a90b627dfad54d1a60d42d285e20029",
  "source": "pragma solidity ^0.4.24;\n\ncontract Adoption {\n    /*\n    - address has 20 bytes\n    - public creates a getter automatically by in the case of arrays the key is required \n    and only single value can be returned in such getter\n    */\n    address[16] public adopters; \n    address owner;\n\n    constructor() public {\n        owner = msg.sender;\n    }\n\n    function adopt(uint petId) public returns (uint) {\n        require(petId >= 0 && petId <= 15, \"Wrong pet ID\");\n        adopters[petId] = msg.sender;\n        return petId;\n    }\n\n    function getAdopters() public view returns (address[16]) {\n        return adopters;\n    }\n\n    function cancelAdoption(uint petId) public {\n        require(owner == msg.sender, \"must be owner\");\n        adopters[petId] = 0x0;\n    }\n}",
  "sourcePath": "/Users/pbrudny/jsy/truffle-challanges/contracts/27_dapp_pet_shop/Adoption.sol",
  "compiler": {
    "name": "solc",
    "version": "0.4.24+commit.e67f0147.Emscripten.clang"
  },
  "schemaVersion": "2.0.1",
  "updatedAt": "2018-07-29T21:44:13.900Z"
}