{
  "contractName": "Election",
  "abi": [
    {
      "constant": true,
      "inputs": [],
      "name": "chairperson",
      "outputs": [
        {
          "name": "",
          "type": "address"
        }
      ],
      "payable": false,
      "stateMutability": "view",
      "type": "function"
    },
    {
      "constant": true,
      "inputs": [
        {
          "name": "",
          "type": "uint256"
        }
      ],
      "name": "candidates",
      "outputs": [
        {
          "name": "name",
          "type": "bytes32"
        },
        {
          "name": "candidateAddress",
          "type": "address"
        },
        {
          "name": "voteCount",
          "type": "uint256"
        }
      ],
      "payable": false,
      "stateMutability": "view",
      "type": "function"
    },
    {
      "constant": true,
      "inputs": [
        {
          "name": "",
          "type": "address"
        }
      ],
      "name": "voters",
      "outputs": [
        {
          "name": "weight",
          "type": "uint256"
        },
        {
          "name": "voted",
          "type": "bool"
        },
        {
          "name": "vote",
          "type": "uint256"
        }
      ],
      "payable": false,
      "stateMutability": "view",
      "type": "function"
    },
    {
      "inputs": [
        {
          "name": "candidateNames",
          "type": "bytes32[]"
        },
        {
          "name": "candidateAddresses",
          "type": "address[]"
        }
      ],
      "payable": false,
      "stateMutability": "nonpayable",
      "type": "constructor"
    },
    {
      "constant": false,
      "inputs": [
        {
          "name": "voter",
          "type": "address"
        }
      ],
      "name": "giveRightToVote",
      "outputs": [],
      "payable": false,
      "stateMutability": "nonpayable",
      "type": "function"
    },
    {
      "constant": false,
      "inputs": [
        {
          "name": "candidate",
          "type": "uint256"
        }
      ],
      "name": "vote",
      "outputs": [],
      "payable": false,
      "stateMutability": "nonpayable",
      "type": "function"
    },
    {
      "constant": true,
      "inputs": [
        {
          "name": "candidateIndex",
          "type": "uint256"
        }
      ],
      "name": "getVoteCount",
      "outputs": [
        {
          "name": "",
          "type": "uint256"
        }
      ],
      "payable": false,
      "stateMutability": "view",
      "type": "function"
    },
    {
      "constant": true,
      "inputs": [],
      "name": "winningCandidate",
      "outputs": [
        {
          "name": "winningCandidate_",
          "type": "uint256"
        }
      ],
      "payable": false,
      "stateMutability": "view",
      "type": "function"
    },
    {
      "constant": true,
      "inputs": [],
      "name": "winnerName",
      "outputs": [
        {
          "name": "winnerName_",
          "type": "bytes32"
        }
      ],
      "payable": false,
      "stateMutability": "view",
      "type": "function"
    }
  ],
  "bytecode": "0x608060405234801561001057600080fd5b50604051610af8380380610af883398101806040528101908080518201929190602001805182019291905050506000336000806101000a81548173ffffffffffffffffffffffffffffffffffffffff021916908373ffffffffffffffffffffffffffffffffffffffff16021790555060018060008060009054906101000a900473ffffffffffffffffffffffffffffffffffffffff1673ffffffffffffffffffffffffffffffffffffffff1673ffffffffffffffffffffffffffffffffffffffff16815260200190815260200160002060000181905550600090505b82518110156101f8576002606060405190810160405280858481518110151561011157fe5b90602001906020020151600019168152602001848481518110151561013257fe5b9060200190602002015173ffffffffffffffffffffffffffffffffffffffff1681526020016000815250908060018154018082558091505090600182039060005260206000209060030201600090919290919091506000820151816000019060001916905560208201518160010160006101000a81548173ffffffffffffffffffffffffffffffffffffffff021916908373ffffffffffffffffffffffffffffffffffffffff1602179055506040820151816002015550505080806001019150506100ec565b5050506108ee8061020a6000396000f30060806040526004361061008e576000357c0100000000000000000000000000000000000000000000000000000000900463ffffffff1680630121b93f146100935780632e4176cf146100c05780633477ee2e146101175780639e7b8d611461019a578063a3ec138d146101dd578063b2c2f2e814610246578063d28178d714610287578063e2ba53f0146102b2575b600080fd5b34801561009f57600080fd5b506100be600480360381019080803590602001909291905050506102e5565b005b3480156100cc57600080fd5b506100d56104ef565b604051808273ffffffffffffffffffffffffffffffffffffffff1673ffffffffffffffffffffffffffffffffffffffff16815260200191505060405180910390f35b34801561012357600080fd5b5061014260048036038101908080359060200190929190505050610514565b6040518084600019166000191681526020018373ffffffffffffffffffffffffffffffffffffffff1673ffffffffffffffffffffffffffffffffffffffff168152602001828152602001935050505060405180910390f35b3480156101a657600080fd5b506101db600480360381019080803573ffffffffffffffffffffffffffffffffffffffff16906020019092919050505061056d565b005b3480156101e957600080fd5b5061021e600480360381019080803573ffffffffffffffffffffffffffffffffffffffff1690602001909291905050506107b7565b6040518084815260200183151515158152602001828152602001935050505060405180910390f35b34801561025257600080fd5b50610271600480360381019080803590602001909291905050506107ee565b6040518082815260200191505060405180910390f35b34801561029357600080fd5b5061029c610818565b6040518082815260200191505060405180910390f35b3480156102be57600080fd5b506102c7610893565b60405180826000191660001916815260200191505060405180910390f35b6000600160003373ffffffffffffffffffffffffffffffffffffffff1673ffffffffffffffffffffffffffffffffffffffff16815260200190815260200160002090508060010160009054906101000a900460ff161515156103af576040517f08c379a000000000000000000000000000000000000000000000000000000000815260040180806020018281038252600e8152602001807f416c726561647920766f7465642e00000000000000000000000000000000000081525060200191505060405180910390fd5b6002828154811015156103be57fe5b906000526020600020906003020160010160009054906101000a900473ffffffffffffffffffffffffffffffffffffffff1673ffffffffffffffffffffffffffffffffffffffff163373ffffffffffffffffffffffffffffffffffffffff1614151515610493576040517f08c379a00000000000000000000000000000000000000000000000000000000081526004018080602001828103825260168152602001807f43616e277420766f7465206f6e20796f757273656c660000000000000000000081525060200191505060405180910390fd5b60018160010160006101000a81548160ff02191690831515021790555081816002018190555080600001546002838154811015156104cd57fe5b9060005260206000209060030201600201600082825401925050819055505050565b6000809054906101000a900473ffffffffffffffffffffffffffffffffffffffff1681565b60028181548110151561052357fe5b90600052602060002090600302016000915090508060000154908060010160009054906101000a900473ffffffffffffffffffffffffffffffffffffffff16908060020154905083565b6000809054906101000a900473ffffffffffffffffffffffffffffffffffffffff1673ffffffffffffffffffffffffffffffffffffffff163373ffffffffffffffffffffffffffffffffffffffff16141515610657576040517f08c379a00000000000000000000000000000000000000000000000000000000081526004018080602001828103825260288152602001807f4f6e6c79206368616972706572736f6e2063616e20676976652072696768742081526020017f746f20766f74652e00000000000000000000000000000000000000000000000081525060400191505060405180910390fd5b600160008273ffffffffffffffffffffffffffffffffffffffff1673ffffffffffffffffffffffffffffffffffffffff16815260200190815260200160002060010160009054906101000a900460ff1615151561071c576040517f08c379a00000000000000000000000000000000000000000000000000000000081526004018080602001828103825260188152602001807f54686520766f74657220616c726561647920766f7465642e000000000000000081525060200191505060405180910390fd5b6000600160008373ffffffffffffffffffffffffffffffffffffffff1673ffffffffffffffffffffffffffffffffffffffff1681526020019081526020016000206000015414151561076d57600080fd5b60018060008373ffffffffffffffffffffffffffffffffffffffff1673ffffffffffffffffffffffffffffffffffffffff1681526020019081526020016000206000018190555050565b60016020528060005260406000206000915090508060000154908060010160009054906101000a900460ff16908060020154905083565b60006002828154811015156107ff57fe5b9060005260206000209060030201600201549050919050565b6000806000809150600090505b60028054905081101561088e578160028281548110151561084257fe5b90600052602060002090600302016002015411156108815760028181548110151561086957fe5b90600052602060002090600302016002015491508092505b8080600101915050610825565b505090565b6000600261089f610818565b8154811015156108ab57fe5b9060005260206000209060030201600001549050905600a165627a7a723058208b097cf32834cf362a457b64bc02c78f0b4c058a706680f16240ecf0d23cee840029",
  "source": "/*\nbased on Ballot from http://solidity.readthedocs.io/en/v0.4.24/solidity-by-example.html\n*/\npragma solidity ^0.4.24;\n\ncontract Election {\n    // This declares a new complex type which will\n    // be used for variables later.\n    // It will represent a single voter.\n    struct Voter {\n        uint weight;\n        bool voted;  // if true, that person already voted\n        uint vote;   // index of the voted candidate\n    }\n\n    // This is a type for a single candidate.\n    struct Candidate {\n        bytes32 name;   // short name (up to 32 bytes)\n        address candidateAddress;\n        uint voteCount; // number of accumulated votes\n    }\n\n    address public chairperson;\n\n    // This declares a state variable that\n    // stores a `Voter` struct for each possible address.\n    mapping(address => Voter) public voters;\n\n    // A dynamically-sized array of `Candidate` structs.\n    Candidate[] public candidates;\n\n    /// Create a new election to choose one of `candidateNames`.\n    constructor(bytes32[] candidateNames, address[] candidateAddresses) public {\n        chairperson = msg.sender;\n        voters[chairperson].weight = 1;\n\n        // For each of the provided candidate names,\n        // create a new candidate object and add it\n        // to the end of the array.\n        for (uint i = 0; i < candidateNames.length; i++) {\n            // `Candidate({...})` creates a temporary\n            // Candidate object and `candidates.push(...)`\n            // appends it to the end of `candidates`.\n            candidates.push(Candidate({\n                name: candidateNames[i],\n                candidateAddress: candidateAddresses[i],\n                voteCount: 0\n            }));\n        }\n    }\n\n    // Give `voter` the right to vote on this election.\n    // May only be called by `chairperson`.\n    function giveRightToVote(address voter) public {\n        // If the first argument of `require` evaluates\n        // to `false`, execution terminates and all\n        // changes to the state and to Ether balances\n        // are reverted.\n        // This used to consume all gas in old EVM versions, but\n        // not anymore.\n        // It is often a good idea to use `require` to check if\n        // functions are called correctly.\n        // As a second argument, you can also provide an\n        // explanation about what went wrong.\n        require(\n            msg.sender == chairperson,\n            \"Only chairperson can give right to vote.\"\n        );\n        require(\n            !voters[voter].voted,\n            \"The voter already voted.\"\n        );\n        require(voters[voter].weight == 0);\n        voters[voter].weight = 1;\n    }\n\n    function vote(uint candidate) public {\n        Voter storage sender = voters[msg.sender];\n        require(!sender.voted, \"Already voted.\");\n        require(msg.sender != candidates[candidate].candidateAddress, \"Can't vote on yourself\");\n        sender.voted = true;\n        sender.vote = candidate;\n\n        // If `candidate` is out of the range of the array,\n        // this will throw automatically and revert all\n        // changes.\n        candidates[candidate].voteCount += sender.weight;\n    }\n\n    function getVoteCount(uint candidateIndex) public view returns(uint) {\n        return candidates[candidateIndex].voteCount;\n    }\n\n    function winningCandidate() public view returns (uint winningCandidate_) {\n        uint winningVoteCount = 0;\n        for (uint p = 0; p < candidates.length; p++) {\n            if (candidates[p].voteCount > winningVoteCount) {\n                winningVoteCount = candidates[p].voteCount;\n                winningCandidate_ = p;\n            }\n        }\n    }\n\n    // Calls winningCandidate() function to get the index\n    // of the winner contained in the candidates array and then\n    // returns the name of the winner\n    function winnerName() public view\n            returns (bytes32 winnerName_)\n    {\n        winnerName_ = candidates[winningCandidate()].name;\n    }\n}",
  "sourcePath": "/Users/pbrudny/jsy/truffle-challanges/contracts/24_election/Election.sol",
  "compiler": {
    "name": "solc",
    "version": "0.4.24+commit.e67f0147.Emscripten.clang"
  },
  "schemaVersion": "2.0.1",
  "updatedAt": "2018-07-29T21:44:13.166Z"
}