{
  "contractName": "IpfsOraclize",
  "abi": [
    {
      "constant": true,
      "inputs": [],
      "name": "body",
      "outputs": [
        {
          "name": "",
          "type": "string"
        }
      ],
      "payable": false,
      "stateMutability": "view",
      "type": "function"
    },
    {
      "inputs": [],
      "payable": true,
      "stateMutability": "payable",
      "type": "constructor"
    },
    {
      "constant": false,
      "inputs": [
        {
          "name": "myid",
          "type": "bytes32"
        },
        {
          "name": "result",
          "type": "string"
        }
      ],
      "name": "__callback",
      "outputs": [],
      "payable": false,
      "stateMutability": "nonpayable",
      "type": "function"
    },
    {
      "constant": false,
      "inputs": [
        {
          "name": "myid",
          "type": "bytes32"
        },
        {
          "name": "result",
          "type": "string"
        },
        {
          "name": "proof",
          "type": "bytes"
        }
      ],
      "name": "__callback",
      "outputs": [],
      "payable": false,
      "stateMutability": "nonpayable",
      "type": "function"
    },
    {
      "constant": false,
      "inputs": [
        {
          "name": "result",
          "type": "string"
        }
      ],
      "name": "__callback",
      "outputs": [],
      "payable": false,
      "stateMutability": "nonpayable",
      "type": "function"
    },
    {
      "constant": false,
      "inputs": [],
      "name": "update",
      "outputs": [],
      "payable": true,
      "stateMutability": "payable",
      "type": "function"
    }
  ],
  "bytecode": "0x60806040526200001d62000023640100000000026401000000009004565b62000d00565b620000cf6040805190810160405280600481526020017f4950465300000000000000000000000000000000000000000000000000000000815250606060405190810160405280603981526020017f6a736f6e28516d597975767561665046784476526d654c67436b6851456e6d4e81526020017f73316678515739684173676a37677672535632292e626f647900000000000000815250620000d2640100000000026401000000009004565b50565b60008060008060009054906101000a900473ffffffffffffffffffffffffffffffffffffffff1673ffffffffffffffffffffffffffffffffffffffff1614806200015657506000620001546000809054906101000a900473ffffffffffffffffffffffffffffffffffffffff16620006b0640100000000026401000000009004565b145b156200017957620001776000620006bb640100000000026401000000009004565b505b6000809054906101000a900473ffffffffffffffffffffffffffffffffffffffff1673ffffffffffffffffffffffffffffffffffffffff166338cc48316040518163ffffffff167c0100000000000000000000000000000000000000000000000000000000028152600401602060405180830381600087803b158015620001ff57600080fd5b505af115801562000214573d6000803e3d6000fd5b505050506040513d60208110156200022b57600080fd5b810190808051906020019092919050505073ffffffffffffffffffffffffffffffffffffffff16600160009054906101000a900473ffffffffffffffffffffffffffffffffffffffff1673ffffffffffffffffffffffffffffffffffffffff1614151562000397576000809054906101000a900473ffffffffffffffffffffffffffffffffffffffff1673ffffffffffffffffffffffffffffffffffffffff166338cc48316040518163ffffffff167c0100000000000000000000000000000000000000000000000000000000028152600401602060405180830381600087803b1580156200031957600080fd5b505af11580156200032e573d6000803e3d6000fd5b505050506040513d60208110156200034557600080fd5b8101908080519060200190929190505050600160006101000a81548173ffffffffffffffffffffffffffffffffffffffff021916908373ffffffffffffffffffffffffffffffffffffffff1602179055505b600160009054906101000a900473ffffffffffffffffffffffffffffffffffffffff1673ffffffffffffffffffffffffffffffffffffffff1663524f3889856040518263ffffffff167c01000000000000000000000000000000000000000000000000000000000281526004018080602001828103825283818151815260200191508051906020019080838360005b838110156200044357808201518184015260208101905062000426565b50505050905090810190601f168015620004715780820380516001836020036101000a031916815260200191505b5092505050602060405180830381600087803b1580156200049157600080fd5b505af1158015620004a6573d6000803e3d6000fd5b505050506040513d6020811015620004bd57600080fd5b8101908080519060200190929190505050905062030d403a02670de0b6b3a764000001811115620004f55760006001029150620006a9565b600160009054906101000a900473ffffffffffffffffffffffffffffffffffffffff1673ffffffffffffffffffffffffffffffffffffffff1663adf59f9982600087876040518563ffffffff167c0100000000000000000000000000000000000000000000000000000000028152600401808481526020018060200180602001838103835285818151815260200191508051906020019080838360005b83811015620005af57808201518184015260208101905062000592565b50505050905090810190601f168015620005dd5780820380516001836020036101000a031916815260200191505b50838103825284818151815260200191508051906020019080838360005b8381101562000618578082015181840152602081019050620005fb565b50505050905090810190601f168015620006465780820380516001836020036101000a031916815260200191505b50955050505050506020604051808303818588803b1580156200066857600080fd5b505af11580156200067d573d6000803e3d6000fd5b50505050506040513d60208110156200069557600080fd5b810190808051906020019092919050505091505b5092915050565b6000813b9050919050565b6000620006d6620006dd640100000000026401000000009004565b9050919050565b6000806200070e731d3b2638a7cc9f2cb3d298a3da7a90b67e5506ed620006b0640100000000026401000000009004565b1115620007c257731d3b2638a7cc9f2cb3d298a3da7a90b67e5506ed6000806101000a81548173ffffffffffffffffffffffffffffffffffffffff021916908373ffffffffffffffffffffffffffffffffffffffff160217905550620007b86040805190810160405280600b81526020017f6574685f6d61696e6e657400000000000000000000000000000000000000000081525062000c35640100000000026401000000009004565b6001905062000c32565b6000620007f273c03a2615d5efaf5f49f60b7bb6583eaec212fdf1620006b0640100000000026401000000009004565b1115620008a65773c03a2615d5efaf5f49f60b7bb6583eaec212fdf16000806101000a81548173ffffffffffffffffffffffffffffffffffffffff021916908373ffffffffffffffffffffffffffffffffffffffff1602179055506200089c6040805190810160405280600c81526020017f6574685f726f707374656e33000000000000000000000000000000000000000081525062000c35640100000000026401000000009004565b6001905062000c32565b6000620008d673b7a07bcf2ba2f2703b24c0691b5278999c59ac7e620006b0640100000000026401000000009004565b11156200098a5773b7a07bcf2ba2f2703b24c0691b5278999c59ac7e6000806101000a81548173ffffffffffffffffffffffffffffffffffffffff021916908373ffffffffffffffffffffffffffffffffffffffff160217905550620009806040805190810160405280600981526020017f6574685f6b6f76616e000000000000000000000000000000000000000000000081525062000c35640100000000026401000000009004565b6001905062000c32565b6000620009ba73146500cfd35b22e4a392fe0adc06de1a1368ed48620006b0640100000000026401000000009004565b111562000a6e5773146500cfd35b22e4a392fe0adc06de1a1368ed486000806101000a81548173ffffffffffffffffffffffffffffffffffffffff021916908373ffffffffffffffffffffffffffffffffffffffff16021790555062000a646040805190810160405280600b81526020017f6574685f72696e6b65627900000000000000000000000000000000000000000081525062000c35640100000000026401000000009004565b6001905062000c32565b600062000a9e736f485c8bf6fc43ea212e93bbf8ce046c7f1cb475620006b0640100000000026401000000009004565b111562000b0357736f485c8bf6fc43ea212e93bbf8ce046c7f1cb4756000806101000a81548173ffffffffffffffffffffffffffffffffffffffff021916908373ffffffffffffffffffffffffffffffffffffffff1602179055506001905062000c32565b600062000b337320e12a1f859b3feae5fb2a0a32c18f5a65555bbf620006b0640100000000026401000000009004565b111562000b98577320e12a1f859b3feae5fb2a0a32c18f5a65555bbf6000806101000a81548173ffffffffffffffffffffffffffffffffffffffff021916908373ffffffffffffffffffffffffffffffffffffffff1602179055506001905062000c32565b600062000bc87351efaf4c8b3c9afbd5ab9f4bbc82784ab6ef8faa620006b0640100000000026401000000009004565b111562000c2d577351efaf4c8b3c9afbd5ab9f4bbc82784ab6ef8faa6000806101000a81548173ffffffffffffffffffffffffffffffffffffffff021916908373ffffffffffffffffffffffffffffffffffffffff1602179055506001905062000c32565b600090505b90565b806002908051906020019062000c4d92919062000c51565b5050565b828054600181600116156101000203166002900490600052602060002090601f016020900481019282601f1062000c9457805160ff191683800117855562000cc5565b8280016001018555821562000cc5579182015b8281111562000cc457825182559160200191906001019062000ca7565b5b50905062000cd4919062000cd8565b5090565b62000cfd91905b8082111562000cf957600081600090555060010162000cdf565b5090565b90565b61131e8062000d106000396000f30060806040526004361061006d576000357c0100000000000000000000000000000000000000000000000000000000900463ffffffff16806327dc297e14610072578063364497e4146100e957806338bbfa5014610179578063a2e6204514610236578063e1d8d66a14610240575b600080fd5b34801561007e57600080fd5b506100e76004803603810190808035600019169060200190929190803590602001908201803590602001908080601f01602080910402602001604051908101604052809392919081815260200183838082843782019150505050505091929192905050506102a9565b005b3480156100f557600080fd5b506100fe6102ec565b6040518080602001828103825283818151815260200191508051906020019080838360005b8381101561013e578082015181840152602081019050610123565b50505050905090810190601f16801561016b5780820380516001836020036101000a031916815260200191505b509250505060405180910390f35b34801561018557600080fd5b506102346004803603810190808035600019169060200190929190803590602001908201803590602001908080601f0160208091040260200160405190810160405280939291908181526020018383808284378201915050505050509192919290803590602001908201803590602001908080601f016020809104026020016040519081016040528093929190818152602001838380828437820191505050505050919291929050505061038a565b005b61023e61038f565b005b34801561024c57600080fd5b506102a7600480360381019080803590602001908201803590602001908080601f016020809104026020016040519081016040528093929190818152602001838380828437820191505050505050919291929050505061042d565b005b6102e8828260006040519080825280601f01601f1916602001820160405280156102e25781602001602082028038833980820191505090505b5061038a565b5050565b60058054600181600116156101000203166002900480601f0160208091040260200160405190810160405280929190818152602001828054600181600116156101000203166002900480156103825780601f1061035757610100808354040283529160200191610382565b820191906000526020600020905b81548152906001019060200180831161036557829003601f168201915b505050505081565b505050565b61042a6040805190810160405280600481526020017f4950465300000000000000000000000000000000000000000000000000000000815250606060405190810160405280603981526020017f6a736f6e28516d597975767561665046784476526d654c67436b6851456e6d4e81526020017f73316678515739684173676a37677672535632292e626f647900000000000000815250610488565b50565b610435610a2a565b73ffffffffffffffffffffffffffffffffffffffff163373ffffffffffffffffffffffffffffffffffffffff1614151561046e57600080fd5b806005908051906020019061048492919061124d565b5050565b60008060008060009054906101000a900473ffffffffffffffffffffffffffffffffffffffff1673ffffffffffffffffffffffffffffffffffffffff1614806104fa575060006104f86000809054906101000a900473ffffffffffffffffffffffffffffffffffffffff16610d88565b145b1561050b576105096000610d93565b505b6000809054906101000a900473ffffffffffffffffffffffffffffffffffffffff1673ffffffffffffffffffffffffffffffffffffffff166338cc48316040518163ffffffff167c0100000000000000000000000000000000000000000000000000000000028152600401602060405180830381600087803b15801561059057600080fd5b505af11580156105a4573d6000803e3d6000fd5b505050506040513d60208110156105ba57600080fd5b810190808051906020019092919050505073ffffffffffffffffffffffffffffffffffffffff16600160009054906101000a900473ffffffffffffffffffffffffffffffffffffffff1673ffffffffffffffffffffffffffffffffffffffff16141515610722576000809054906101000a900473ffffffffffffffffffffffffffffffffffffffff1673ffffffffffffffffffffffffffffffffffffffff166338cc48316040518163ffffffff167c0100000000000000000000000000000000000000000000000000000000028152600401602060405180830381600087803b1580156106a657600080fd5b505af11580156106ba573d6000803e3d6000fd5b505050506040513d60208110156106d057600080fd5b8101908080519060200190929190505050600160006101000a81548173ffffffffffffffffffffffffffffffffffffffff021916908373ffffffffffffffffffffffffffffffffffffffff1602179055505b600160009054906101000a900473ffffffffffffffffffffffffffffffffffffffff1673ffffffffffffffffffffffffffffffffffffffff1663524f3889856040518263ffffffff167c01000000000000000000000000000000000000000000000000000000000281526004018080602001828103825283818151815260200191508051906020019080838360005b838110156107cc5780820151818401526020810190506107b1565b50505050905090810190601f1680156107f95780820380516001836020036101000a031916815260200191505b5092505050602060405180830381600087803b15801561081857600080fd5b505af115801561082c573d6000803e3d6000fd5b505050506040513d602081101561084257600080fd5b8101908080519060200190929190505050905062030d403a02670de0b6b3a7640000018111156108785760006001029150610a23565b600160009054906101000a900473ffffffffffffffffffffffffffffffffffffffff1673ffffffffffffffffffffffffffffffffffffffff1663adf59f9982600087876040518563ffffffff167c0100000000000000000000000000000000000000000000000000000000028152600401808481526020018060200180602001838103835285818151815260200191508051906020019080838360005b83811015610930578082015181840152602081019050610915565b50505050905090810190601f16801561095d5780820380516001836020036101000a031916815260200191505b50838103825284818151815260200191508051906020019080838360005b8381101561099657808201518184015260208101905061097b565b50505050905090810190601f1680156109c35780820380516001836020036101000a031916815260200191505b50955050505050506020604051808303818588803b1580156109e457600080fd5b505af11580156109f8573d6000803e3d6000fd5b50505050506040513d6020811015610a0f57600080fd5b810190808051906020019092919050505091505b5092915050565b6000806000809054906101000a900473ffffffffffffffffffffffffffffffffffffffff1673ffffffffffffffffffffffffffffffffffffffff161480610a9a57506000610a986000809054906101000a900473ffffffffffffffffffffffffffffffffffffffff16610d88565b145b15610aab57610aa96000610d93565b505b6000809054906101000a900473ffffffffffffffffffffffffffffffffffffffff1673ffffffffffffffffffffffffffffffffffffffff166338cc48316040518163ffffffff167c0100000000000000000000000000000000000000000000000000000000028152600401602060405180830381600087803b158015610b3057600080fd5b505af1158015610b44573d6000803e3d6000fd5b505050506040513d6020811015610b5a57600080fd5b810190808051906020019092919050505073ffffffffffffffffffffffffffffffffffffffff16600160009054906101000a900473ffffffffffffffffffffffffffffffffffffffff1673ffffffffffffffffffffffffffffffffffffffff16141515610cc2576000809054906101000a900473ffffffffffffffffffffffffffffffffffffffff1673ffffffffffffffffffffffffffffffffffffffff166338cc48316040518163ffffffff167c0100000000000000000000000000000000000000000000000000000000028152600401602060405180830381600087803b158015610c4657600080fd5b505af1158015610c5a573d6000803e3d6000fd5b505050506040513d6020811015610c7057600080fd5b8101908080519060200190929190505050600160006101000a81548173ffffffffffffffffffffffffffffffffffffffff021916908373ffffffffffffffffffffffffffffffffffffffff1602179055505b600160009054906101000a900473ffffffffffffffffffffffffffffffffffffffff1673ffffffffffffffffffffffffffffffffffffffff1663c281d19e6040518163ffffffff167c0100000000000000000000000000000000000000000000000000000000028152600401602060405180830381600087803b158015610d4857600080fd5b505af1158015610d5c573d6000803e3d6000fd5b505050506040513d6020811015610d7257600080fd5b8101908080519060200190929190505050905090565b6000813b9050919050565b6000610d9d610da4565b9050919050565b600080610dc4731d3b2638a7cc9f2cb3d298a3da7a90b67e5506ed610d88565b1115610e6557731d3b2638a7cc9f2cb3d298a3da7a90b67e5506ed6000806101000a81548173ffffffffffffffffffffffffffffffffffffffff021916908373ffffffffffffffffffffffffffffffffffffffff160217905550610e5c6040805190810160405280600b81526020017f6574685f6d61696e6e6574000000000000000000000000000000000000000000815250611233565b60019050611230565b6000610e8473c03a2615d5efaf5f49f60b7bb6583eaec212fdf1610d88565b1115610f255773c03a2615d5efaf5f49f60b7bb6583eaec212fdf16000806101000a81548173ffffffffffffffffffffffffffffffffffffffff021916908373ffffffffffffffffffffffffffffffffffffffff160217905550610f1c6040805190810160405280600c81526020017f6574685f726f707374656e330000000000000000000000000000000000000000815250611233565b60019050611230565b6000610f4473b7a07bcf2ba2f2703b24c0691b5278999c59ac7e610d88565b1115610fe55773b7a07bcf2ba2f2703b24c0691b5278999c59ac7e6000806101000a81548173ffffffffffffffffffffffffffffffffffffffff021916908373ffffffffffffffffffffffffffffffffffffffff160217905550610fdc6040805190810160405280600981526020017f6574685f6b6f76616e0000000000000000000000000000000000000000000000815250611233565b60019050611230565b600061100473146500cfd35b22e4a392fe0adc06de1a1368ed48610d88565b11156110a55773146500cfd35b22e4a392fe0adc06de1a1368ed486000806101000a81548173ffffffffffffffffffffffffffffffffffffffff021916908373ffffffffffffffffffffffffffffffffffffffff16021790555061109c6040805190810160405280600b81526020017f6574685f72696e6b656279000000000000000000000000000000000000000000815250611233565b60019050611230565b60006110c4736f485c8bf6fc43ea212e93bbf8ce046c7f1cb475610d88565b111561112757736f485c8bf6fc43ea212e93bbf8ce046c7f1cb4756000806101000a81548173ffffffffffffffffffffffffffffffffffffffff021916908373ffffffffffffffffffffffffffffffffffffffff16021790555060019050611230565b60006111467320e12a1f859b3feae5fb2a0a32c18f5a65555bbf610d88565b11156111a9577320e12a1f859b3feae5fb2a0a32c18f5a65555bbf6000806101000a81548173ffffffffffffffffffffffffffffffffffffffff021916908373ffffffffffffffffffffffffffffffffffffffff16021790555060019050611230565b60006111c87351efaf4c8b3c9afbd5ab9f4bbc82784ab6ef8faa610d88565b111561122b577351efaf4c8b3c9afbd5ab9f4bbc82784ab6ef8faa6000806101000a81548173ffffffffffffffffffffffffffffffffffffffff021916908373ffffffffffffffffffffffffffffffffffffffff16021790555060019050611230565b600090505b90565b806002908051906020019061124992919061124d565b5050565b828054600181600116156101000203166002900490600052602060002090601f016020900481019282601f1061128e57805160ff19168380011785556112bc565b828001600101855582156112bc579182015b828111156112bb5782518255916020019190600101906112a0565b5b5090506112c991906112cd565b5090565b6112ef91905b808211156112eb5760008160009055506001016112d3565b5090565b905600a165627a7a7230582026dfa6da720f7f36db9e3737968f9f32aa99fa3527df0a21614d96f6fd3bf1960029",
  "source": "\n/*\n  Learn more about setting a IPFS node: https://michalzalecki.com/set-up-ipfs-node-on-the-server/\n*/\npragma solidity ^0.4.24;\n\nimport \"../utils/usingOraclize.sol\";\n\ncontract IpfsOraclize is usingOraclize {\n    string public body;\n\n    constructor() public payable {\n        update();\n    }\n\n    function __callback(string result) public {\n        require(msg.sender == oraclize_cbAddress());\n        body = result; \n    }\n\n    function update() public payable {\n        oraclize_query(\"IPFS\", \"json(QmYyuvuafPFxDvRmeLgCkhQEnmNs1fxQW9hAsgj7gvrSV2).body\");\n    }\n}",
  "sourcePath": "/Users/pbrudny/jsy/truffle-challanges/contracts/23_ipfs_oraclize/IpfsOraclize.sol",
  "compiler": {
    "name": "solc",
    "version": "0.4.24+commit.e67f0147.Emscripten.clang"
  },
  "schemaVersion": "2.0.1",
  "updatedAt": "2018-07-28T17:19:52.943Z"
}