{
  "contractName": "LpgPrice",
  "abi": [
    {
      "constant": true,
      "inputs": [],
      "name": "lpgPriceUSD",
      "outputs": [
        {
          "name": "",
          "type": "uint256"
        }
      ],
      "payable": false,
      "stateMutability": "view",
      "type": "function"
    },
    {
      "inputs": [],
      "payable": true,
      "stateMutability": "payable",
      "type": "constructor"
    },
    {
      "constant": false,
      "inputs": [
        {
          "name": "myid",
          "type": "bytes32"
        },
        {
          "name": "result",
          "type": "string"
        }
      ],
      "name": "__callback",
      "outputs": [],
      "payable": false,
      "stateMutability": "nonpayable",
      "type": "function"
    },
    {
      "constant": false,
      "inputs": [
        {
          "name": "myid",
          "type": "bytes32"
        },
        {
          "name": "result",
          "type": "string"
        },
        {
          "name": "proof",
          "type": "bytes"
        }
      ],
      "name": "__callback",
      "outputs": [],
      "payable": false,
      "stateMutability": "nonpayable",
      "type": "function"
    },
    {
      "constant": false,
      "inputs": [
        {
          "name": "result",
          "type": "string"
        }
      ],
      "name": "__callback",
      "outputs": [],
      "payable": false,
      "stateMutability": "nonpayable",
      "type": "function"
    },
    {
      "constant": false,
      "inputs": [],
      "name": "update",
      "outputs": [],
      "payable": true,
      "stateMutability": "payable",
      "type": "function"
    }
  ],
  "bytecode": "0x60806040526200001d62000023640100000000026401000000009004565b62000d26565b620000f56040805190810160405280600381526020017f55524c0000000000000000000000000000000000000000000000000000000000815250608060405190810160405280604281526020017f786d6c2868747470733a2f2f7777772e6675656c65636f6e6f6d792e676f762f81526020017f77732f726573742f6675656c707269636573292e6675656c5072696365732e6c81526020017f7067000000000000000000000000000000000000000000000000000000000000815250620000f8640100000000026401000000009004565b50565b60008060008060009054906101000a900473ffffffffffffffffffffffffffffffffffffffff1673ffffffffffffffffffffffffffffffffffffffff1614806200017c575060006200017a6000809054906101000a900473ffffffffffffffffffffffffffffffffffffffff16620006d6640100000000026401000000009004565b145b156200019f576200019d6000620006e1640100000000026401000000009004565b505b6000809054906101000a900473ffffffffffffffffffffffffffffffffffffffff1673ffffffffffffffffffffffffffffffffffffffff166338cc48316040518163ffffffff167c0100000000000000000000000000000000000000000000000000000000028152600401602060405180830381600087803b1580156200022557600080fd5b505af11580156200023a573d6000803e3d6000fd5b505050506040513d60208110156200025157600080fd5b810190808051906020019092919050505073ffffffffffffffffffffffffffffffffffffffff16600160009054906101000a900473ffffffffffffffffffffffffffffffffffffffff1673ffffffffffffffffffffffffffffffffffffffff16141515620003bd576000809054906101000a900473ffffffffffffffffffffffffffffffffffffffff1673ffffffffffffffffffffffffffffffffffffffff166338cc48316040518163ffffffff167c0100000000000000000000000000000000000000000000000000000000028152600401602060405180830381600087803b1580156200033f57600080fd5b505af115801562000354573d6000803e3d6000fd5b505050506040513d60208110156200036b57600080fd5b8101908080519060200190929190505050600160006101000a81548173ffffffffffffffffffffffffffffffffffffffff021916908373ffffffffffffffffffffffffffffffffffffffff1602179055505b600160009054906101000a900473ffffffffffffffffffffffffffffffffffffffff1673ffffffffffffffffffffffffffffffffffffffff1663524f3889856040518263ffffffff167c01000000000000000000000000000000000000000000000000000000000281526004018080602001828103825283818151815260200191508051906020019080838360005b83811015620004695780820151818401526020810190506200044c565b50505050905090810190601f168015620004975780820380516001836020036101000a031916815260200191505b5092505050602060405180830381600087803b158015620004b757600080fd5b505af1158015620004cc573d6000803e3d6000fd5b505050506040513d6020811015620004e357600080fd5b8101908080519060200190929190505050905062030d403a02670de0b6b3a7640000018111156200051b5760006001029150620006cf565b600160009054906101000a900473ffffffffffffffffffffffffffffffffffffffff1673ffffffffffffffffffffffffffffffffffffffff1663adf59f9982600087876040518563ffffffff167c0100000000000000000000000000000000000000000000000000000000028152600401808481526020018060200180602001838103835285818151815260200191508051906020019080838360005b83811015620005d5578082015181840152602081019050620005b8565b50505050905090810190601f168015620006035780820380516001836020036101000a031916815260200191505b50838103825284818151815260200191508051906020019080838360005b838110156200063e57808201518184015260208101905062000621565b50505050905090810190601f1680156200066c5780820380516001836020036101000a031916815260200191505b50955050505050506020604051808303818588803b1580156200068e57600080fd5b505af1158015620006a3573d6000803e3d6000fd5b50505050506040513d6020811015620006bb57600080fd5b810190808051906020019092919050505091505b5092915050565b6000813b9050919050565b6000620006fc62000703640100000000026401000000009004565b9050919050565b60008062000734731d3b2638a7cc9f2cb3d298a3da7a90b67e5506ed620006d6640100000000026401000000009004565b1115620007e857731d3b2638a7cc9f2cb3d298a3da7a90b67e5506ed6000806101000a81548173ffffffffffffffffffffffffffffffffffffffff021916908373ffffffffffffffffffffffffffffffffffffffff160217905550620007de6040805190810160405280600b81526020017f6574685f6d61696e6e657400000000000000000000000000000000000000000081525062000c5b640100000000026401000000009004565b6001905062000c58565b60006200081873c03a2615d5efaf5f49f60b7bb6583eaec212fdf1620006d6640100000000026401000000009004565b1115620008cc5773c03a2615d5efaf5f49f60b7bb6583eaec212fdf16000806101000a81548173ffffffffffffffffffffffffffffffffffffffff021916908373ffffffffffffffffffffffffffffffffffffffff160217905550620008c26040805190810160405280600c81526020017f6574685f726f707374656e33000000000000000000000000000000000000000081525062000c5b640100000000026401000000009004565b6001905062000c58565b6000620008fc73b7a07bcf2ba2f2703b24c0691b5278999c59ac7e620006d6640100000000026401000000009004565b1115620009b05773b7a07bcf2ba2f2703b24c0691b5278999c59ac7e6000806101000a81548173ffffffffffffffffffffffffffffffffffffffff021916908373ffffffffffffffffffffffffffffffffffffffff160217905550620009a66040805190810160405280600981526020017f6574685f6b6f76616e000000000000000000000000000000000000000000000081525062000c5b640100000000026401000000009004565b6001905062000c58565b6000620009e073146500cfd35b22e4a392fe0adc06de1a1368ed48620006d6640100000000026401000000009004565b111562000a945773146500cfd35b22e4a392fe0adc06de1a1368ed486000806101000a81548173ffffffffffffffffffffffffffffffffffffffff021916908373ffffffffffffffffffffffffffffffffffffffff16021790555062000a8a6040805190810160405280600b81526020017f6574685f72696e6b65627900000000000000000000000000000000000000000081525062000c5b640100000000026401000000009004565b6001905062000c58565b600062000ac4736f485c8bf6fc43ea212e93bbf8ce046c7f1cb475620006d6640100000000026401000000009004565b111562000b2957736f485c8bf6fc43ea212e93bbf8ce046c7f1cb4756000806101000a81548173ffffffffffffffffffffffffffffffffffffffff021916908373ffffffffffffffffffffffffffffffffffffffff1602179055506001905062000c58565b600062000b597320e12a1f859b3feae5fb2a0a32c18f5a65555bbf620006d6640100000000026401000000009004565b111562000bbe577320e12a1f859b3feae5fb2a0a32c18f5a65555bbf6000806101000a81548173ffffffffffffffffffffffffffffffffffffffff021916908373ffffffffffffffffffffffffffffffffffffffff1602179055506001905062000c58565b600062000bee7351efaf4c8b3c9afbd5ab9f4bbc82784ab6ef8faa620006d6640100000000026401000000009004565b111562000c53577351efaf4c8b3c9afbd5ab9f4bbc82784ab6ef8faa6000806101000a81548173ffffffffffffffffffffffffffffffffffffffff021916908373ffffffffffffffffffffffffffffffffffffffff1602179055506001905062000c58565b600090505b90565b806002908051906020019062000c7392919062000c77565b5050565b828054600181600116156101000203166002900490600052602060002090601f016020900481019282601f1062000cba57805160ff191683800117855562000ceb565b8280016001018555821562000ceb579182015b8281111562000cea57825182559160200191906001019062000ccd565b5b50905062000cfa919062000cfe565b5090565b62000d2391905b8082111562000d1f57600081600090555060010162000d05565b5090565b90565b6115358062000d366000396000f30060806040526004361061006d576000357c0100000000000000000000000000000000000000000000000000000000900463ffffffff16806327dc297e1461007257806338bbfa50146100e9578063a2e62045146101a6578063b5d19765146101b0578063e1d8d66a146101db575b600080fd5b34801561007e57600080fd5b506100e76004803603810190808035600019169060200190929190803590602001908201803590602001908080601f0160208091040260200160405190810160405280939291908181526020018383808284378201915050505050509192919290505050610244565b005b3480156100f557600080fd5b506101a46004803603810190808035600019169060200190929190803590602001908201803590602001908080601f0160208091040260200160405190810160405280939291908181526020018383808284378201915050505050509192919290803590602001908201803590602001908080601f0160208091040260200160405190810160405280939291908181526020018383808284378201915050505050509192919290505050610287565b005b6101ae61028c565b005b3480156101bc57600080fd5b506101c5610350565b6040518082815260200191505060405180910390f35b3480156101e757600080fd5b50610242600480360381019080803590602001908201803590602001908080601f0160208091040260200160405190810160405280939291908181526020018383808284378201915050505050509192919290505050610356565b005b610283828260006040519080825280601f01601f19166020018201604052801561027d5781602001602082028038833980820191505090505b50610287565b5050565b505050565b61034d6040805190810160405280600381526020017f55524c0000000000000000000000000000000000000000000000000000000000815250608060405190810160405280604281526020017f786d6c2868747470733a2f2f7777772e6675656c65636f6e6f6d792e676f762f81526020017f77732f726573742f6675656c707269636573292e6675656c5072696365732e6c81526020017f70670000000000000000000000000000000000000000000000000000000000008152506103ab565b50565b60055481565b61035e61094d565b73ffffffffffffffffffffffffffffffffffffffff163373ffffffffffffffffffffffffffffffffffffffff1614151561039757600080fd5b6103a2816002610cab565b60058190555050565b60008060008060009054906101000a900473ffffffffffffffffffffffffffffffffffffffff1673ffffffffffffffffffffffffffffffffffffffff16148061041d5750600061041b6000809054906101000a900473ffffffffffffffffffffffffffffffffffffffff16610f9f565b145b1561042e5761042c6000610faa565b505b6000809054906101000a900473ffffffffffffffffffffffffffffffffffffffff1673ffffffffffffffffffffffffffffffffffffffff166338cc48316040518163ffffffff167c0100000000000000000000000000000000000000000000000000000000028152600401602060405180830381600087803b1580156104b357600080fd5b505af11580156104c7573d6000803e3d6000fd5b505050506040513d60208110156104dd57600080fd5b810190808051906020019092919050505073ffffffffffffffffffffffffffffffffffffffff16600160009054906101000a900473ffffffffffffffffffffffffffffffffffffffff1673ffffffffffffffffffffffffffffffffffffffff16141515610645576000809054906101000a900473ffffffffffffffffffffffffffffffffffffffff1673ffffffffffffffffffffffffffffffffffffffff166338cc48316040518163ffffffff167c0100000000000000000000000000000000000000000000000000000000028152600401602060405180830381600087803b1580156105c957600080fd5b505af11580156105dd573d6000803e3d6000fd5b505050506040513d60208110156105f357600080fd5b8101908080519060200190929190505050600160006101000a81548173ffffffffffffffffffffffffffffffffffffffff021916908373ffffffffffffffffffffffffffffffffffffffff1602179055505b600160009054906101000a900473ffffffffffffffffffffffffffffffffffffffff1673ffffffffffffffffffffffffffffffffffffffff1663524f3889856040518263ffffffff167c01000000000000000000000000000000000000000000000000000000000281526004018080602001828103825283818151815260200191508051906020019080838360005b838110156106ef5780820151818401526020810190506106d4565b50505050905090810190601f16801561071c5780820380516001836020036101000a031916815260200191505b5092505050602060405180830381600087803b15801561073b57600080fd5b505af115801561074f573d6000803e3d6000fd5b505050506040513d602081101561076557600080fd5b8101908080519060200190929190505050905062030d403a02670de0b6b3a76400000181111561079b5760006001029150610946565b600160009054906101000a900473ffffffffffffffffffffffffffffffffffffffff1673ffffffffffffffffffffffffffffffffffffffff1663adf59f9982600087876040518563ffffffff167c0100000000000000000000000000000000000000000000000000000000028152600401808481526020018060200180602001838103835285818151815260200191508051906020019080838360005b83811015610853578082015181840152602081019050610838565b50505050905090810190601f1680156108805780820380516001836020036101000a031916815260200191505b50838103825284818151815260200191508051906020019080838360005b838110156108b957808201518184015260208101905061089e565b50505050905090810190601f1680156108e65780820380516001836020036101000a031916815260200191505b50955050505050506020604051808303818588803b15801561090757600080fd5b505af115801561091b573d6000803e3d6000fd5b50505050506040513d602081101561093257600080fd5b810190808051906020019092919050505091505b5092915050565b6000806000809054906101000a900473ffffffffffffffffffffffffffffffffffffffff1673ffffffffffffffffffffffffffffffffffffffff1614806109bd575060006109bb6000809054906101000a900473ffffffffffffffffffffffffffffffffffffffff16610f9f565b145b156109ce576109cc6000610faa565b505b6000809054906101000a900473ffffffffffffffffffffffffffffffffffffffff1673ffffffffffffffffffffffffffffffffffffffff166338cc48316040518163ffffffff167c0100000000000000000000000000000000000000000000000000000000028152600401602060405180830381600087803b158015610a5357600080fd5b505af1158015610a67573d6000803e3d6000fd5b505050506040513d6020811015610a7d57600080fd5b810190808051906020019092919050505073ffffffffffffffffffffffffffffffffffffffff16600160009054906101000a900473ffffffffffffffffffffffffffffffffffffffff1673ffffffffffffffffffffffffffffffffffffffff16141515610be5576000809054906101000a900473ffffffffffffffffffffffffffffffffffffffff1673ffffffffffffffffffffffffffffffffffffffff166338cc48316040518163ffffffff167c0100000000000000000000000000000000000000000000000000000000028152600401602060405180830381600087803b158015610b6957600080fd5b505af1158015610b7d573d6000803e3d6000fd5b505050506040513d6020811015610b9357600080fd5b8101908080519060200190929190505050600160006101000a81548173ffffffffffffffffffffffffffffffffffffffff021916908373ffffffffffffffffffffffffffffffffffffffff1602179055505b600160009054906101000a900473ffffffffffffffffffffffffffffffffffffffff1673ffffffffffffffffffffffffffffffffffffffff1663c281d19e6040518163ffffffff167c0100000000000000000000000000000000000000000000000000000000028152600401602060405180830381600087803b158015610c6b57600080fd5b505af1158015610c7f573d6000803e3d6000fd5b505050506040513d6020811015610c9557600080fd5b8101908080519060200190929190505050905090565b6000606060008060008693506000925060009150600090505b8351811015610f805760307f0100000000000000000000000000000000000000000000000000000000000000028482815181101515610cff57fe5b9060200101517f010000000000000000000000000000000000000000000000000000000000000090047f0100000000000000000000000000000000000000000000000000000000000000027effffffffffffffffffffffffffffffffffffffffffffffffffffffffffffff191610158015610e17575060397f0100000000000000000000000000000000000000000000000000000000000000028482815181101515610da757fe5b9060200101517f010000000000000000000000000000000000000000000000000000000000000090047f0100000000000000000000000000000000000000000000000000000000000000027effffffffffffffffffffffffffffffffffffffffffffffffffffffffffffff191611155b15610ec8578115610e3a576000861415610e3057610f80565b8580600190039650505b600a8302925060308482815181101515610e5057fe5b9060200101517f010000000000000000000000000000000000000000000000000000000000000090047f0100000000000000000000000000000000000000000000000000000000000000027f010000000000000000000000000000000000000000000000000000000000000090040383019250610f73565b602e7f0100000000000000000000000000000000000000000000000000000000000000028482815181101515610efa57fe5b9060200101517f010000000000000000000000000000000000000000000000000000000000000090047f0100000000000000000000000000000000000000000000000000000000000000027effffffffffffffffffffffffffffffffffffffffffffffffffffffffffffff19161415610f7257600191505b5b8080600101915050610cc4565b6000861115610f925785600a0a830292505b8294505050505092915050565b6000813b9050919050565b6000610fb4610fbb565b9050919050565b600080610fdb731d3b2638a7cc9f2cb3d298a3da7a90b67e5506ed610f9f565b111561107c57731d3b2638a7cc9f2cb3d298a3da7a90b67e5506ed6000806101000a81548173ffffffffffffffffffffffffffffffffffffffff021916908373ffffffffffffffffffffffffffffffffffffffff1602179055506110736040805190810160405280600b81526020017f6574685f6d61696e6e657400000000000000000000000000000000000000000081525061144a565b60019050611447565b600061109b73c03a2615d5efaf5f49f60b7bb6583eaec212fdf1610f9f565b111561113c5773c03a2615d5efaf5f49f60b7bb6583eaec212fdf16000806101000a81548173ffffffffffffffffffffffffffffffffffffffff021916908373ffffffffffffffffffffffffffffffffffffffff1602179055506111336040805190810160405280600c81526020017f6574685f726f707374656e33000000000000000000000000000000000000000081525061144a565b60019050611447565b600061115b73b7a07bcf2ba2f2703b24c0691b5278999c59ac7e610f9f565b11156111fc5773b7a07bcf2ba2f2703b24c0691b5278999c59ac7e6000806101000a81548173ffffffffffffffffffffffffffffffffffffffff021916908373ffffffffffffffffffffffffffffffffffffffff1602179055506111f36040805190810160405280600981526020017f6574685f6b6f76616e000000000000000000000000000000000000000000000081525061144a565b60019050611447565b600061121b73146500cfd35b22e4a392fe0adc06de1a1368ed48610f9f565b11156112bc5773146500cfd35b22e4a392fe0adc06de1a1368ed486000806101000a81548173ffffffffffffffffffffffffffffffffffffffff021916908373ffffffffffffffffffffffffffffffffffffffff1602179055506112b36040805190810160405280600b81526020017f6574685f72696e6b65627900000000000000000000000000000000000000000081525061144a565b60019050611447565b60006112db736f485c8bf6fc43ea212e93bbf8ce046c7f1cb475610f9f565b111561133e57736f485c8bf6fc43ea212e93bbf8ce046c7f1cb4756000806101000a81548173ffffffffffffffffffffffffffffffffffffffff021916908373ffffffffffffffffffffffffffffffffffffffff16021790555060019050611447565b600061135d7320e12a1f859b3feae5fb2a0a32c18f5a65555bbf610f9f565b11156113c0577320e12a1f859b3feae5fb2a0a32c18f5a65555bbf6000806101000a81548173ffffffffffffffffffffffffffffffffffffffff021916908373ffffffffffffffffffffffffffffffffffffffff16021790555060019050611447565b60006113df7351efaf4c8b3c9afbd5ab9f4bbc82784ab6ef8faa610f9f565b1115611442577351efaf4c8b3c9afbd5ab9f4bbc82784ab6ef8faa6000806101000a81548173ffffffffffffffffffffffffffffffffffffffff021916908373ffffffffffffffffffffffffffffffffffffffff16021790555060019050611447565b600090505b90565b8060029080519060200190611460929190611464565b5050565b828054600181600116156101000203166002900490600052602060002090601f016020900481019282601f106114a557805160ff19168380011785556114d3565b828001600101855582156114d3579182015b828111156114d25782518255916020019190600101906114b7565b5b5090506114e091906114e4565b5090565b61150691905b808211156115025760008160009055506001016114ea565b5090565b905600a165627a7a723058208754281022711ce1c5319a1e77c8d75b16bf1035c9a87e9e15b43f648219858d0029",
  "source": "\npragma solidity ^0.4.24;\n\nimport \"../utils/usingOraclize.sol\";\n\ncontract LpgPrice is usingOraclize {\n    uint public lpgPriceUSD;\n\n    constructor() public payable {\n        update();\n    }\n\n    function __callback(string result) public {\n        require(msg.sender == oraclize_cbAddress());\n        lpgPriceUSD = parseInt(result, 2); \n    }\n\n    function update() public payable {\n        oraclize_query(\"URL\", \"xml(https://www.fueleconomy.gov/ws/rest/fuelprices).fuelPrices.lpg\");\n    }\n}",
  "sourcePath": "/Users/pbrudny/jsy/truffle-challanges/contracts/20_lpg_price/LpgPrice.sol",
  "compiler": {
    "name": "solc",
    "version": "0.4.24+commit.e67f0147.Emscripten.clang"
  },
  "schemaVersion": "2.0.1",
  "updatedAt": "2018-07-28T17:19:52.939Z"
}