{
  "contractName": "Raffle",
  "abi": [
    {
      "constant": true,
      "inputs": [
        {
          "name": "",
          "type": "uint256"
        }
      ],
      "name": "participants",
      "outputs": [
        {
          "name": "",
          "type": "address"
        }
      ],
      "payable": false,
      "stateMutability": "view",
      "type": "function"
    },
    {
      "constant": true,
      "inputs": [],
      "name": "chosenNumber",
      "outputs": [
        {
          "name": "",
          "type": "uint256"
        }
      ],
      "payable": false,
      "stateMutability": "view",
      "type": "function"
    },
    {
      "constant": true,
      "inputs": [],
      "name": "winner",
      "outputs": [
        {
          "name": "",
          "type": "address"
        }
      ],
      "payable": false,
      "stateMutability": "view",
      "type": "function"
    },
    {
      "inputs": [],
      "payable": true,
      "stateMutability": "payable",
      "type": "constructor"
    },
    {
      "payable": true,
      "stateMutability": "payable",
      "type": "fallback"
    },
    {
      "anonymous": false,
      "inputs": [
        {
          "indexed": false,
          "name": "_chosenNumber",
          "type": "uint256"
        },
        {
          "indexed": false,
          "name": "winner",
          "type": "address"
        }
      ],
      "name": "ChooseWinner",
      "type": "event"
    },
    {
      "anonymous": false,
      "inputs": [
        {
          "indexed": false,
          "name": "",
          "type": "uint256"
        }
      ],
      "name": "RandomNumberGenerated",
      "type": "event"
    },
    {
      "constant": false,
      "inputs": [],
      "name": "joinRaffle",
      "outputs": [],
      "payable": false,
      "stateMutability": "nonpayable",
      "type": "function"
    },
    {
      "constant": false,
      "inputs": [],
      "name": "generateRandomNum",
      "outputs": [],
      "payable": false,
      "stateMutability": "nonpayable",
      "type": "function"
    },
    {
      "constant": false,
      "inputs": [
        {
          "name": "myid",
          "type": "bytes32"
        },
        {
          "name": "result",
          "type": "string"
        }
      ],
      "name": "__callback",
      "outputs": [],
      "payable": false,
      "stateMutability": "nonpayable",
      "type": "function"
    },
    {
      "constant": false,
      "inputs": [
        {
          "name": "_queryId",
          "type": "bytes32"
        },
        {
          "name": "_result",
          "type": "string"
        },
        {
          "name": "_proof",
          "type": "bytes"
        }
      ],
      "name": "__callback",
      "outputs": [],
      "payable": false,
      "stateMutability": "nonpayable",
      "type": "function"
    }
  ],
  "bytecode": "0x60806040526002600560006101000a81548160ff021916908360ff160217905550600a600560016101000a81548160ff021916908360ff1602179055506000600860146101000a81548160ff02191690831515021790555033600860006101000a81548173ffffffffffffffffffffffffffffffffffffffff021916908373ffffffffffffffffffffffffffffffffffffffff16021790555061426c806100a76000396000f300608060405260043610610083576000357c0100000000000000000000000000000000000000000000000000000000900463ffffffff168063136b33921461008557806327dc297e1461009c57806335c1d3491461011357806338bbfa50146101805780637cbb69341461023d578063c846f41f14610254578063dfbf53ae1461027f575b005b34801561009157600080fd5b5061009a6102d6565b005b3480156100a857600080fd5b506101116004803603810190808035600019169060200190929190803590602001908201803590602001908080601f0160208091040260200160405190810160405280939291908181526020018383808284378201915050505050509192919290505050610536565b005b34801561011f57600080fd5b5061013e60048036038101908080359060200190929190505050610579565b604051808273ffffffffffffffffffffffffffffffffffffffff1673ffffffffffffffffffffffffffffffffffffffff16815260200191505060405180910390f35b34801561018c57600080fd5b5061023b6004803603810190808035600019169060200190929190803590602001908201803590602001908080601f0160208091040260200160405190810160405280939291908181526020018383808284378201915050505050509192919290803590602001908201803590602001908080601f01602080910402602001604051908101604052809392919081815260200183838082843782019150505050505091929192905050506105b7565b005b34801561024957600080fd5b5061025261078b565b005b34801561026057600080fd5b5061026961085a565b6040518082815260200191505060405180910390f35b34801561028b57600080fd5b50610294610860565b604051808273ffffffffffffffffffffffffffffffffffffffff1673ffffffffffffffffffffffffffffffffffffffff16815260200191505060405180910390f35b600860149054906101000a900460ff161515156102f257600080fd5b600860009054906101000a900473ffffffffffffffffffffffffffffffffffffffff1673ffffffffffffffffffffffffffffffffffffffff163373ffffffffffffffffffffffffffffffffffffffff16141515156103b8576040517f08c379a00000000000000000000000000000000000000000000000000000000081526004018080602001828103825260108152602001807f4f776e65722063616e2774206a6f696e0000000000000000000000000000000081525060200191505060405180910390fd5b600560019054906101000a900460ff1660ff16600560029054906101000a900460ff1660ff16111515156103eb57600080fd5b600a60003373ffffffffffffffffffffffffffffffffffffffff1673ffffffffffffffffffffffffffffffffffffffff16815260200190815260200160002060009054906101000a900460ff1615151561044457600080fd5b60093390806001815401808255809150509060018203906000526020600020016000909192909190916101000a81548173ffffffffffffffffffffffffffffffffffffffff021916908373ffffffffffffffffffffffffffffffffffffffff160217905550506001600a60003373ffffffffffffffffffffffffffffffffffffffff1673ffffffffffffffffffffffffffffffffffffffff16815260200190815260200160002060006101000a81548160ff0219169083151502179055506005600281819054906101000a900460ff168092919060010191906101000a81548160ff021916908360ff16021790555050565b610575828260006040519080825280601f01601f19166020018201604052801561056f5781602001602082028038833980820191505090505b506105b7565b5050565b60098181548110151561058857fe5b906000526020600020016000915054906101000a900473ffffffffffffffffffffffffffffffffffffffff1681565b600080600860149054906101000a900460ff161515156105d657600080fd5b6105de610886565b73ffffffffffffffffffffffffffffffffffffffff163373ffffffffffffffffffffffffffffffffffffffff1614151561061757600080fd5b6000610624868686610be4565b60ff1614151561063357610784565b6001600860146101000a81548160ff021916908315150217905550600560029054906101000a900460ff1660ff16915081846040516020018082805190602001908083835b60208310151561069d5780518252602082019150602081019050602083039250610678565b6001836020036101000a0380198251168184511680821785525050505050509050019150506040516020818303038152906040526040518082805190602001908083835b60208310151561070657805182526020820191506020810190506020830392506106e1565b6001836020036101000a03801982511681845116808217855250505050505090500191505060405180910390206001900481151561074057fe5b06905061074c81610e1b565b7facb85192b17e57cdd6ffdc2af021cc70c3a2269771b37b82dd36695fec903af5816040518082815260200191505060405180910390a15b5050505050565b6000806000600860149054906101000a900460ff161515156107ac57600080fd5b600560009054906101000a900460ff1660ff16600560029054906101000a900460ff1660ff16101580156108045750600560019054906101000a900460ff1660ff16600560029054906101000a900460ff1660ff1611155b151561080f57600080fd5b61083b60307f010000000000000000000000000000000000000000000000000000000000000002610f49565b600492506000915062030d4090506108548284836112d0565b50505050565b60065481565b600760009054906101000a900473ffffffffffffffffffffffffffffffffffffffff1681565b6000806000809054906101000a900473ffffffffffffffffffffffffffffffffffffffff1673ffffffffffffffffffffffffffffffffffffffff1614806108f6575060006108f46000809054906101000a900473ffffffffffffffffffffffffffffffffffffffff16611896565b145b156109075761090560006118a1565b505b6000809054906101000a900473ffffffffffffffffffffffffffffffffffffffff1673ffffffffffffffffffffffffffffffffffffffff166338cc48316040518163ffffffff167c0100000000000000000000000000000000000000000000000000000000028152600401602060405180830381600087803b15801561098c57600080fd5b505af11580156109a0573d6000803e3d6000fd5b505050506040513d60208110156109b657600080fd5b810190808051906020019092919050505073ffffffffffffffffffffffffffffffffffffffff16600160009054906101000a900473ffffffffffffffffffffffffffffffffffffffff1673ffffffffffffffffffffffffffffffffffffffff16141515610b1e576000809054906101000a900473ffffffffffffffffffffffffffffffffffffffff1673ffffffffffffffffffffffffffffffffffffffff166338cc48316040518163ffffffff167c0100000000000000000000000000000000000000000000000000000000028152600401602060405180830381600087803b158015610aa257600080fd5b505af1158015610ab6573d6000803e3d6000fd5b505050506040513d6020811015610acc57600080fd5b8101908080519060200190929190505050600160006101000a81548173ffffffffffffffffffffffffffffffffffffffff021916908373ffffffffffffffffffffffffffffffffffffffff1602179055505b600160009054906101000a900473ffffffffffffffffffffffffffffffffffffffff1673ffffffffffffffffffffffffffffffffffffffff1663c281d19e6040518163ffffffff167c0100000000000000000000000000000000000000000000000000000000028152600401602060405180830381600087803b158015610ba457600080fd5b505af1158015610bb8573d6000803e3d6000fd5b505050506040513d6020811015610bce57600080fd5b8101908080519060200190929190505050905090565b6000807f4c00000000000000000000000000000000000000000000000000000000000000836000815181101515610c1757fe5b9060200101517f010000000000000000000000000000000000000000000000000000000000000090047f0100000000000000000000000000000000000000000000000000000000000000027effffffffffffffffffffffffffffffffffffffffffffffffffffffffffffff1916141580610d2c57507f5000000000000000000000000000000000000000000000000000000000000000836001815181101515610cbc57fe5b9060200101517f010000000000000000000000000000000000000000000000000000000000000090047f0100000000000000000000000000000000000000000000000000000000000000027effffffffffffffffffffffffffffffffffffffffffffffffffffffffffffff191614155b80610dd5575060017f010000000000000000000000000000000000000000000000000000000000000002836002815181101515610d6557fe5b9060200101517f010000000000000000000000000000000000000000000000000000000000000090047f0100000000000000000000000000000000000000000000000000000000000000027effffffffffffffffffffffffffffffffffffffffffffffffffffffffffffff191614155b15610de35760019150610e13565b610df6838686610df16118b2565b611954565b9050600015158115151415610e0e5760029150610e13565b600091505b509392505050565b806006819055506009600654815481101515610e3357fe5b9060005260206000200160009054906101000a900473ffffffffffffffffffffffffffffffffffffffff16600760006101000a81548173ffffffffffffffffffffffffffffffffffffffff021916908373ffffffffffffffffffffffffffffffffffffffff1602179055507f997a1f354f477fd5351e603b865200d746df107e806e64d8bbf80b40312238946006546009600654815481101515610ed357fe5b9060005260206000200160009054906101000a900473ffffffffffffffffffffffffffffffffffffffff16604051808381526020018273ffffffffffffffffffffffffffffffffffffffff1673ffffffffffffffffffffffffffffffffffffffff1681526020019250505060405180910390a150565b60008060009054906101000a900473ffffffffffffffffffffffffffffffffffffffff1673ffffffffffffffffffffffffffffffffffffffff161480610fb857506000610fb66000809054906101000a900473ffffffffffffffffffffffffffffffffffffffff16611896565b145b15610fc957610fc760006118a1565b505b6000809054906101000a900473ffffffffffffffffffffffffffffffffffffffff1673ffffffffffffffffffffffffffffffffffffffff166338cc48316040518163ffffffff167c0100000000000000000000000000000000000000000000000000000000028152600401602060405180830381600087803b15801561104e57600080fd5b505af1158015611062573d6000803e3d6000fd5b505050506040513d602081101561107857600080fd5b810190808051906020019092919050505073ffffffffffffffffffffffffffffffffffffffff16600160009054906101000a900473ffffffffffffffffffffffffffffffffffffffff1673ffffffffffffffffffffffffffffffffffffffff161415156111e0576000809054906101000a900473ffffffffffffffffffffffffffffffffffffffff1673ffffffffffffffffffffffffffffffffffffffff166338cc48316040518163ffffffff167c0100000000000000000000000000000000000000000000000000000000028152600401602060405180830381600087803b15801561116457600080fd5b505af1158015611178573d6000803e3d6000fd5b505050506040513d602081101561118e57600080fd5b8101908080519060200190929190505050600160006101000a81548173ffffffffffffffffffffffffffffffffffffffff021916908373ffffffffffffffffffffffffffffffffffffffff1602179055505b600160009054906101000a900473ffffffffffffffffffffffffffffffffffffffff1673ffffffffffffffffffffffffffffffffffffffff1663688dcfd7826040518263ffffffff167c010000000000000000000000000000000000000000000000000000000002815260040180827effffffffffffffffffffffffffffffffffffffffffffffffffffffffffffff19167effffffffffffffffffffffffffffffffffffffffffffffffffffffffffffff19168152602001915050600060405180830381600087803b1580156112b557600080fd5b505af11580156112c9573d6000803e3d6000fd5b5050505050565b6000606080606060006060806112e4614159565b6000606060008c1180156112f9575060208c11155b151561130457600080fd5b600a8d029c5060016040519080825280601f01601f19166020018201604052801561133e5781602001602082028038833980820191505090505b5098508b7f01000000000000000000000000000000000000000000000000000000000000000289600081518110151561137357fe5b9060200101907effffffffffffffffffffffffffffffffffffffffffffffffffffffffffffff1916908160001a90535060206040519080825280601f01601f1916602001820160405280156113d75781602001602082028038833980820191505090505b50975060206040519080825280601f01601f19166020018201604052801561140e5781602001602082028038833980820191505090505b509650611419612144565b95506020885242411860014303401860208901526020875285602088015260206040519080825280601f01601f19166020018201604052801561146b5781602001602082028038833980820191505090505b5094508c602086015260086040519080825280601f01601f1916602001820160405280156114a85781602001602082028038833980820191505090505b5093506114bb85601860088760006124a2565b506080604051908101604052808981526020018a81526020018881526020018681525092506115206040805190810160405280600681526020017f72616e646f6d0000000000000000000000000000000000000000000000000000815250848d612502565b915060086040519080825280601f01601f1916602001820160405280156115565781602001602082028038833980820191505090505b50905060208401517f0100000000000000000000000000000000000000000000000000000000000000810460278301537e01000000000000000000000000000000000000000000000000000000000000810460268301537d010000000000000000000000000000000000000000000000000000000000810460258301537c0100000000000000000000000000000000000000000000000000000000810460248301537b01000000000000000000000000000000000000000000000000000000810460238301537a010000000000000000000000000000000000000000000000000000810460228301537901000000000000000000000000000000000000000000000000008104602183015378010000000000000000000000000000000000000000000000008104602083015350611883828285600160048110151561169757fe5b602002015160028760006004811015156116ad57fe5b60200201516040518082805190602001908083835b6020831015156116e757805182526020820191506020810190506020830392506116c2565b6001836020036101000a0380198251168184511680821785525050505050509050019150506020604051808303816000865af115801561172b573d6000803e3d6000fd5b5050506040513d602081101561174057600080fd5b810190808051906020019092919050505087600260048110151561176057fe5b60200201516040518085805190602001908083835b60208310151561179a5780518252602082019150602081019050602083039250611775565b6001836020036101000a03801982511681845116808217855250505050505090500184805190602001908083835b6020831015156117ed57805182526020820191506020810190506020830392506117c8565b6001836020036101000a038019825116818451168082178552505050505050905001836000191660001916815260200182805190602001908083835b60208310151561184e5780518252602082019150602081019050602083039250611829565b6001836020036101000a03801982511681845116808217855250505050505090500194505050505060405180910390206128aa565b8199505050505050505050509392505050565b6000813b9050919050565b60006118ab6128d2565b9050919050565b606060028054600181600116156101000203166002900480601f01602080910402602001604051908101604052809291908181526020018280546001816001161561010002031660029004801561194a5780601f1061191f5761010080835404028352916020019161194a565b820191906000526020600020905b81548152906001019060200180831161192d57829003601f168201915b5050505050905090565b6000806060806060806000806060602060028e604581518110151561197557fe5b9060200101517f010000000000000000000000000000000000000000000000000000000000000090047f0100000000000000000000000000000000000000000000000000000000000000027f010000000000000000000000000000000000000000000000000000000000000090040160440101975060206040519080825280601f01601f191660200182016040528015611a1e5781602001602082028038833980820191505090505b509650611a308d8960208a60006124a2565b5060028a8d6040518083805190602001908083835b602083101515611a6a5780518252602082019150602081019050602083039250611a45565b6001836020036101000a0380198251168184511680821785525050505050509050018260001916600019168152602001925050506020604051808303816000865af1158015611abd573d6000803e3d6000fd5b5050506040513d6020811015611ad257600080fd5b8101908080519060200190929190505050604051808260001916600019168152602001915050604051809103902060001916876040518082805190602001908083835b602083101515611b3a5780518252602082019150602081019050602083039250611b15565b6001836020036101000a038019825116818451168082178552505050505050905001915050604051809103902060001916141515611b7b5760009850612134565b60028d600160498b0101815181101515611b9157fe5b9060200101517f010000000000000000000000000000000000000000000000000000000000000090047f0100000000000000000000000000000000000000000000000000000000000000027f01000000000000000000000000000000000000000000000000000000000000009004016040519080825280601f01601f191660200182016040528015611c325781602001602082028038833980820191505090505b509550611c478d60498a0188518960006124a2565b50611d756002876040518082805190602001908083835b602083101515611c835780518252602082019150602081019050602083039250611c5e565b6001836020036101000a0380198251168184511680821785525050505050509050019150506020604051808303816000865af1158015611cc7573d6000803e3d6000fd5b5050506040513d6020811015611cdc57600080fd5b81019080805190602001909291905050508c8f600860208d0101815181101515611d0257fe5b9060200101517f010000000000000000000000000000000000000000000000000000000000000090047f0100000000000000000000000000000000000000000000000000000000000000027f01000000000000000000000000000000000000000000000000000000000000009004612d61565b1515611d845760009850612134565b60296040519080825280601f01601f191660200182016040528015611db85781602001602082028038833980820191505090505b509450611dcd8d60208a0160298860006124a2565b50604080519080825280601f01601f191660200182016040528015611e015781602001602082028038833980820191505090505b50935060418651602960208b010101019250611e258d6040850360408760006124a2565b506002846040518082805190602001908083835b602083101515611e5e5780518252602082019150602081019050602083039250611e39565b6001836020036101000a0380198251168184511680821785525050505050509050019150506020604051808303816000865af1158015611ea2573d6000803e3d6000fd5b5050506040513d6020811015611eb757600080fd5b8101908080519060200190929190505050915084826040518083805190602001908083835b602083101515611f015780518252602082019150602081019050602083039250611edc565b6001836020036101000a038019825116818451168082178552505050505050905001826000191660001916815260200192505050604051809103902060001916600360008e6000191660001916815260200190815260200160002054600019161415611f8b57600360008d6000191660001916815260200190815260200160002060009055611f94565b60009850612134565b60496040519080825280601f01601f191660200182016040528015611fc85781602001602082028038833980820191505090505b509050611fda8d8960498460006124a2565b506120876002826040518082805190602001908083835b6020831015156120165780518252602082019150602081019050602083039250611ff1565b6001836020036101000a0380198251168184511680821785525050505050509050019150506020604051808303816000865af115801561205a573d6000803e3d6000fd5b5050506040513d602081101561206f57600080fd5b81019080805190602001909291905050508786612e79565b15156120965760009850612134565b6000151560046000846000191660001916815260200190815260200160002060009054906101000a900460ff1615151415612108576120d58d846131a6565b60046000846000191660001916815260200190815260200160002060006101000a81548160ff0219169083151502179055505b60046000836000191660001916815260200190815260200160002060009054906101000a900460ff1698505b5050505050505050949350505050565b6000806000809054906101000a900473ffffffffffffffffffffffffffffffffffffffff1673ffffffffffffffffffffffffffffffffffffffff1614806121b4575060006121b26000809054906101000a900473ffffffffffffffffffffffffffffffffffffffff16611896565b145b156121c5576121c360006118a1565b505b6000809054906101000a900473ffffffffffffffffffffffffffffffffffffffff1673ffffffffffffffffffffffffffffffffffffffff166338cc48316040518163ffffffff167c0100000000000000000000000000000000000000000000000000000000028152600401602060405180830381600087803b15801561224a57600080fd5b505af115801561225e573d6000803e3d6000fd5b505050506040513d602081101561227457600080fd5b810190808051906020019092919050505073ffffffffffffffffffffffffffffffffffffffff16600160009054906101000a900473ffffffffffffffffffffffffffffffffffffffff1673ffffffffffffffffffffffffffffffffffffffff161415156123dc576000809054906101000a900473ffffffffffffffffffffffffffffffffffffffff1673ffffffffffffffffffffffffffffffffffffffff166338cc48316040518163ffffffff167c0100000000000000000000000000000000000000000000000000000000028152600401602060405180830381600087803b15801561236057600080fd5b505af1158015612374573d6000803e3d6000fd5b505050506040513d602081101561238a57600080fd5b8101908080519060200190929190505050600160006101000a81548173ffffffffffffffffffffffffffffffffffffffff021916908373ffffffffffffffffffffffffffffffffffffffff1602179055505b600160009054906101000a900473ffffffffffffffffffffffffffffffffffffffff1673ffffffffffffffffffffffffffffffffffffffff1663abaa5f3e6040518163ffffffff167c0100000000000000000000000000000000000000000000000000000000028152600401602060405180830381600087803b15801561246257600080fd5b505af1158015612476573d6000803e3d6000fd5b505050506040513d602081101561248c57600080fd5b8101908080519060200190929190505050905090565b606060008060008487019250828651101515156124be57600080fd5b8760200191508460200190505b8688602001018210156124f357818901518082880152506020820191506020810190506124cb565b85935050505095945050505050565b6000606060008060009054906101000a900473ffffffffffffffffffffffffffffffffffffffff1673ffffffffffffffffffffffffffffffffffffffff161480612575575060006125736000809054906101000a900473ffffffffffffffffffffffffffffffffffffffff16611896565b145b156125865761258460006118a1565b505b6000809054906101000a900473ffffffffffffffffffffffffffffffffffffffff1673ffffffffffffffffffffffffffffffffffffffff166338cc48316040518163ffffffff167c0100000000000000000000000000000000000000000000000000000000028152600401602060405180830381600087803b15801561260b57600080fd5b505af115801561261f573d6000803e3d6000fd5b505050506040513d602081101561263557600080fd5b810190808051906020019092919050505073ffffffffffffffffffffffffffffffffffffffff16600160009054906101000a900473ffffffffffffffffffffffffffffffffffffffff1673ffffffffffffffffffffffffffffffffffffffff1614151561279d576000809054906101000a900473ffffffffffffffffffffffffffffffffffffffff1673ffffffffffffffffffffffffffffffffffffffff166338cc48316040518163ffffffff167c0100000000000000000000000000000000000000000000000000000000028152600401602060405180830381600087803b15801561272157600080fd5b505af1158015612735573d6000803e3d6000fd5b505050506040513d602081101561274b57600080fd5b8101908080519060200190929190505050600160006101000a81548173ffffffffffffffffffffffffffffffffffffffff021916908373ffffffffffffffffffffffffffffffffffffffff1602179055505b60046040519080825280602002602001820160405280156127d257816020015b60608152602001906001900390816127bd5790505b5090508360006004811015156127e457fe5b60200201518160008151811015156127f857fe5b9060200190602002018190525083600160048110151561281457fe5b602002015181600181518110151561282857fe5b9060200190602002018190525083600260048110151561284457fe5b602002015181600281518110151561285857fe5b9060200190602002018190525083600360048110151561287457fe5b602002015181600381518110151561288857fe5b906020019060200201819052506128a085828561370c565b9150509392505050565b8060036000846000191660001916815260200190815260200160002081600019169055505050565b6000806128f2731d3b2638a7cc9f2cb3d298a3da7a90b67e5506ed611896565b111561299357731d3b2638a7cc9f2cb3d298a3da7a90b67e5506ed6000806101000a81548173ffffffffffffffffffffffffffffffffffffffff021916908373ffffffffffffffffffffffffffffffffffffffff16021790555061298a6040805190810160405280600b81526020017f6574685f6d61696e6e6574000000000000000000000000000000000000000000815250613cca565b60019050612d5e565b60006129b273c03a2615d5efaf5f49f60b7bb6583eaec212fdf1611896565b1115612a535773c03a2615d5efaf5f49f60b7bb6583eaec212fdf16000806101000a81548173ffffffffffffffffffffffffffffffffffffffff021916908373ffffffffffffffffffffffffffffffffffffffff160217905550612a4a6040805190810160405280600c81526020017f6574685f726f707374656e330000000000000000000000000000000000000000815250613cca565b60019050612d5e565b6000612a7273b7a07bcf2ba2f2703b24c0691b5278999c59ac7e611896565b1115612b135773b7a07bcf2ba2f2703b24c0691b5278999c59ac7e6000806101000a81548173ffffffffffffffffffffffffffffffffffffffff021916908373ffffffffffffffffffffffffffffffffffffffff160217905550612b0a6040805190810160405280600981526020017f6574685f6b6f76616e0000000000000000000000000000000000000000000000815250613cca565b60019050612d5e565b6000612b3273146500cfd35b22e4a392fe0adc06de1a1368ed48611896565b1115612bd35773146500cfd35b22e4a392fe0adc06de1a1368ed486000806101000a81548173ffffffffffffffffffffffffffffffffffffffff021916908373ffffffffffffffffffffffffffffffffffffffff160217905550612bca6040805190810160405280600b81526020017f6574685f72696e6b656279000000000000000000000000000000000000000000815250613cca565b60019050612d5e565b6000612bf2736f485c8bf6fc43ea212e93bbf8ce046c7f1cb475611896565b1115612c5557736f485c8bf6fc43ea212e93bbf8ce046c7f1cb4756000806101000a81548173ffffffffffffffffffffffffffffffffffffffff021916908373ffffffffffffffffffffffffffffffffffffffff16021790555060019050612d5e565b6000612c747320e12a1f859b3feae5fb2a0a32c18f5a65555bbf611896565b1115612cd7577320e12a1f859b3feae5fb2a0a32c18f5a65555bbf6000806101000a81548173ffffffffffffffffffffffffffffffffffffffff021916908373ffffffffffffffffffffffffffffffffffffffff16021790555060019050612d5e565b6000612cf67351efaf4c8b3c9afbd5ab9f4bbc82784ab6ef8faa611896565b1115612d59577351efaf4c8b3c9afbd5ab9f4bbc82784ab6ef8faa6000806101000a81548173ffffffffffffffffffffffffffffffffffffffff021916908373ffffffffffffffffffffffffffffffffffffffff16021790555060019050612d5e565b600090505b90565b600080600060019150838551141515612d7957600080fd5b600090505b83811015612e6d578481815181101515612d9457fe5b9060200101517f010000000000000000000000000000000000000000000000000000000000000090047f0100000000000000000000000000000000000000000000000000000000000000027effffffffffffffffffffffffffffffffffffffffffffffffffffffffffffff19168682602081101515612e0f57fe5b1a7f0100000000000000000000000000000000000000000000000000000000000000027effffffffffffffffffffffffffffffffffffffffffffffffffffffffffffff1916141515612e6057600091505b8080600101915050612d7e565b81925050509392505050565b600080600080600060606000606060206040519080825280601f01601f191660200182016040528015612ebb5781602001602082028038833980820191505090505b50925060208a6003815181101515612ecf57fe5b9060200101517f010000000000000000000000000000000000000000000000000000000000000090047f0100000000000000000000000000000000000000000000000000000000000000027f01000000000000000000000000000000000000000000000000000000000000009004036004019150612f528a8360208660006124a2565b925060206040519080825280601f01601f191660200182016040528015612f885781602001602082028038833980820191505090505b5090506022820191506130238a60208c60018603815181101515612fa857fe5b9060200101517f010000000000000000000000000000000000000000000000000000000000000090047f0100000000000000000000000000000000000000000000000000000000000000027f0100000000000000000000000000000000000000000000000000000000000000900403840160208460006124a2565b905060208301519450602081015193506130408b601b8787613ce4565b80975081985050508573ffffffffffffffffffffffffffffffffffffffff16896040518082805190602001908083835b6020831015156130955780518252602082019150602081019050602083039250613070565b6001836020036101000a03801982511681845116808217855250505050505090500191505060405180910390206001900473ffffffffffffffffffffffffffffffffffffffff1614156130eb5760019750613198565b6130f88b601c8787613ce4565b80975081985050508573ffffffffffffffffffffffffffffffffffffffff16896040518082805190602001908083835b60208310151561314d5780518252602082019150602081019050602083039250613128565b6001836020036101000a03801982511681845116808217855250505050505090500191505060405180910390206001900473ffffffffffffffffffffffffffffffffffffffff161497505b505050505050509392505050565b600080606080606080606080606060028b60018c018151811015156131c757fe5b9060200101517f010000000000000000000000000000000000000000000000000000000000000090047f0100000000000000000000000000000000000000000000000000000000000000027f01000000000000000000000000000000000000000000000000000000000000009004016040519080825280601f01601f1916602001820160405280156132685781602001602082028038833980820191505090505b50965061327a8b8b89518a60006124a2565b50604080519080825280601f01601f1916602001820160405280156132ae5781602001602082028038833980820191505090505b5095506132c18b600460408960006124a2565b5060626040519080825280601f01601f1916602001820160405280156132f65781602001602082028038833980820191505090505b50945060017f01000000000000000000000000000000000000000000000000000000000000000285600081518110151561332c57fe5b9060200101907effffffffffffffffffffffffffffffffffffffffffffffffffffffffffffff1916908160001a90535061336e8b60418c0360418860016124a2565b506040805190810160405280602081526020017ffd94fa71bc0ba10d39d464d0d8f465efeef0a2764e3887fcc9df41ded20f505c81525093506133b784600060208860426124a2565b506134646002866040518082805190602001908083835b6020831015156133f357805182526020820191506020810190506020830392506133ce565b6001836020036101000a0380198251168184511680821785525050505050509050019150506020604051808303816000865af1158015613437573d6000803e3d6000fd5b5050506040513d602081101561344c57600080fd5b81019080805190602001909291905050508888612e79565b975060001515881515141561347c57600098506136fe565b606060405190810160405280604081526020017f7fb956469c5c9b89840d55b43537e66a98dd4811ea0a27224272c2e5622911e881526020017f537a2f8e86a46baec82864e98dd01e9ccc2f8bc5dfc9cbe5a91a290498dd96e4815250925060426040519080825280601f01601f19166020018201604052801561350f5781602001602082028038833980820191505090505b50915060fe7f01000000000000000000000000000000000000000000000000000000000000000282600081518110151561354557fe5b9060200101907effffffffffffffffffffffffffffffffffffffffffffffffffffffffffffff1916908160001a9053506135858b600360418560016124a2565b5060028b604581518110151561359757fe5b9060200101517f010000000000000000000000000000000000000000000000000000000000000090047f0100000000000000000000000000000000000000000000000000000000000000027f01000000000000000000000000000000000000000000000000000000000000009004016040519080825280601f01601f1916602001820160405280156136385781602001602082028038833980820191505090505b50905061364b8b604483518460006124a2565b506136f86002836040518082805190602001908083835b6020831015156136875780518252602082019150602081019050602083039250613662565b6001836020036101000a0380198251168184511680821785525050505050509050019150506020604051808303816000865af11580156136cb573d6000803e3d6000fd5b5050506040513d60208110156136e057600080fd5b81019080805190602001909291905050508285612e79565b97508798505b505050505050505092915050565b600080606060008060009054906101000a900473ffffffffffffffffffffffffffffffffffffffff1673ffffffffffffffffffffffffffffffffffffffff1614806137805750600061377e6000809054906101000a900473ffffffffffffffffffffffffffffffffffffffff16611896565b145b156137915761378f60006118a1565b505b6000809054906101000a900473ffffffffffffffffffffffffffffffffffffffff1673ffffffffffffffffffffffffffffffffffffffff166338cc48316040518163ffffffff167c0100000000000000000000000000000000000000000000000000000000028152600401602060405180830381600087803b15801561381657600080fd5b505af115801561382a573d6000803e3d6000fd5b505050506040513d602081101561384057600080fd5b810190808051906020019092919050505073ffffffffffffffffffffffffffffffffffffffff16600160009054906101000a900473ffffffffffffffffffffffffffffffffffffffff1673ffffffffffffffffffffffffffffffffffffffff161415156139a8576000809054906101000a900473ffffffffffffffffffffffffffffffffffffffff1673ffffffffffffffffffffffffffffffffffffffff166338cc48316040518163ffffffff167c0100000000000000000000000000000000000000000000000000000000028152600401602060405180830381600087803b15801561392c57600080fd5b505af1158015613940573d6000803e3d6000fd5b505050506040513d602081101561395657600080fd5b8101908080519060200190929190505050600160006101000a81548173ffffffffffffffffffffffffffffffffffffffff021916908373ffffffffffffffffffffffffffffffffffffffff1602179055505b600160009054906101000a900473ffffffffffffffffffffffffffffffffffffffff1673ffffffffffffffffffffffffffffffffffffffff16632ef3accc87866040518363ffffffff167c01000000000000000000000000000000000000000000000000000000000281526004018080602001838152602001828103825284818151815260200191508051906020019080838360005b83811015613a59578082015181840152602081019050613a3e565b50505050905090810190601f168015613a865780820380516001836020036101000a031916815260200191505b509350505050602060405180830381600087803b158015613aa657600080fd5b505af1158015613aba573d6000803e3d6000fd5b505050506040513d6020811015613ad057600080fd5b81019080805190602001909291905050509150833a02670de0b6b3a764000001821115613b035760006001029250613cc1565b613b0c85613d28565b9050600160009054906101000a900473ffffffffffffffffffffffffffffffffffffffff1673ffffffffffffffffffffffffffffffffffffffff1663c55c1cb68360008985896040518663ffffffff167c0100000000000000000000000000000000000000000000000000000000028152600401808581526020018060200180602001848152602001838103835286818151815260200191508051906020019080838360005b83811015613bcd578082015181840152602081019050613bb2565b50505050905090810190601f168015613bfa5780820380516001836020036101000a031916815260200191505b50838103825285818151815260200191508051906020019080838360005b83811015613c33578082015181840152602081019050613c18565b50505050905090810190601f168015613c605780820380516001836020036101000a031916815260200191505b5096505050505050506020604051808303818588803b158015613c8257600080fd5b505af1158015613c96573d6000803e3d6000fd5b50505050506040513d6020811015613cad57600080fd5b810190808051906020019092919050505092505b50509392505050565b8060029080519060200190613ce0929190614181565b5050565b60008060008060405188815287602082015286604082015285606082015260208160808360006001610bb8f192508051915050818193509350505094509492505050565b6060613d32614201565b6000613d3c613dad565b613d4882610400613db9565b613d5182613e09565b600090505b8351811015613d9657613d898482815181101515613d7057fe5b9060200190602002015183613e1790919063ffffffff16565b8080600101915050613d56565b613d9f82613e3c565b816000015192505050919050565b60405180590338823950565b60008190506000602082811515613dcc57fe5b06141515613de957602081811515613de057fe5b06602003810190505b808360200181815250506040518084526000815281810160405250505050565b613e14816004613e4a565b50565b613e248260028351613e6e565b613e378183613fc790919063ffffffff16565b505050565b613e47816007613e4a565b50565b613e6a601f60058360ff169060020a02178361407390919063ffffffff16565b5050565b601781111515613e9f57613e9a8160058460ff169060020a0260ff16178461407390919063ffffffff16565b613fc2565b60ff81111515613ee557613ec9601860058460ff169060020a02178461407390919063ffffffff16565b613edf816001856140b39092919063ffffffff16565b50613fc1565b61ffff81111515613f2c57613f10601960058460ff169060020a02178461407390919063ffffffff16565b613f26816002856140b39092919063ffffffff16565b50613fc0565b63ffffffff81111515613f7557613f59601a60058460ff169060020a02178461407390919063ffffffff16565b613f6f816004856140b39092919063ffffffff16565b50613fbf565b67ffffffffffffffff81111515613fbe57613fa6601b60058460ff169060020a02178461407390919063ffffffff16565b613fbc816008856140b39092919063ffffffff16565b505b5b5b5b5b505050565b613fcf614201565b6000806000808660200151876000015151875101111561400557614004876002613ffe8a602001518a5161411a565b02614136565b5b8551915086518051602081830101955087518101825260208801945050505b6020821015156140495782518452602084019350602083019250602082039150614024565b6001826020036101000a039050801983511681855116818117865250508694505050505092915050565b8160200151600183600001515101111561409957614098826002846020015102614136565b5b815180516020818301018381536001820183525050505050565b6140bb614201565b60008460200151856000015151840111156140eb576140ea8560026140e488602001518761411a565b02614136565b5b6001836101000a0390508451805184818301018684198251161781528582018352505050849150509392505050565b60008183111561412c57829050614130565b8190505b92915050565b6060826000015190506141498383613db9565b6141538382613fc7565b50505050565b6080604051908101604052806004905b60608152602001906001900390816141695790505090565b828054600181600116156101000203166002900490600052602060002090601f016020900481019282601f106141c257805160ff19168380011785556141f0565b828001600101855582156141f0579182015b828111156141ef5782518255916020019190600101906141d4565b5b5090506141fd919061421b565b5090565b604080519081016040528060608152602001600081525090565b61423d91905b80821115614239576000816000905550600101614221565b5090565b905600a165627a7a723058205477736919f5f0d52f8967f88d7a0bb7c4ebda72df576dba1173cb9b9dad344c0029",
  "source": "/* \n    Simple raffle with RNG from Oraclize\n    based on https://hackernoon.com/building-a-raffle-contract-using-oraclize-e746e5edff6b\n*/\npragma solidity ^0.4.24;\n\nimport \"../utils/usingOraclize.sol\";\n\ncontract Raffle is usingOraclize {\n    uint8 minParticipants = 2;\n    uint8 maxParticipants = 10;\n    uint8 participantsNumber;\n    uint public chosenNumber;\n    address public winner;\n    address owner;\n    bool raffleFinished = false;\n    \n    address[] public participants;\n    \n    mapping (address => bool) participantsMapping;\n    \n    event ChooseWinner(uint _chosenNumber, address winner);\n    event RandomNumberGenerated(uint);\n\n    constructor() public payable {\n        owner = msg.sender;\n    }\n\n    function() public payable {}\n    \n    function joinRaffle() public {\n        require(!raffleFinished);\n        require(msg.sender != owner, \"Owner can't join\");\n        require(participantsNumber <= maxParticipants);\n        require(!participantsMapping[msg.sender]);\n        participants.push(msg.sender);\n        participantsMapping[msg.sender] = true;\n        participantsNumber++;\n    }\n    \n    function chooseWinner(uint _chosenNum) internal {\n        chosenNumber = _chosenNum;\n        winner = participants[chosenNumber];\n        emit ChooseWinner(chosenNumber,participants[chosenNumber]);\n    }\n    \n    function generateRandomNum() public {\n        require(!raffleFinished);\n        require(participantsNumber >= minParticipants && participantsNumber <= maxParticipants);\n        oraclize_setProof(proofType_Ledger); // sets the Ledger authenticity proof\n        uint N = 4; // number of random bytes we want the datasource to return\n        uint delay = 0; // number of seconds to wait before the execution takes place\n        uint callbackGas = 200000; // amount of gas we want Oraclize to set for the callback function\n        // this function internally generates the correct oraclize_query and returns its queryId\n        oraclize_newRandomDSQuery(delay, N, callbackGas); \n    }\n    \n    // the callback function is called by Oraclize when the result is ready\n    // the oraclize_randomDS_proofVerify modifier prevents an invalid proof to execute this function code:\n    // the proof validity is fully verified on-chain\n    function __callback(bytes32 _queryId, string _result, bytes _proof) public {\n        // If we already generated a random number, we can't generate a new one.\n        require(!raffleFinished);\n        // if we reach this point successfully, it means that the attached authenticity proof has passed!\n        require (msg.sender == oraclize_cbAddress());\n        if (oraclize_randomDS_proofVerify__returnCode(_queryId, _result, _proof) != 0) {\n        // the proof verification has failed, do we need to take any action here? (depends on the use case)\n        } else {\n             // the proof verification has passed\n            raffleFinished = true;\n            // for simplicity of use, let's also convert the random bytes to uint if we need\n            uint maxRange = participantsNumber; // this is the highest uint we want to get. It should never be greater than 2^(8*N), where N is the number of random bytes we had asked the datasource to return\n            uint randomNumber = uint(keccak256(abi.encodePacked(_result))) % maxRange; // this is an efficient way to get the uint out in the [0, maxRange] range\n            \n            chooseWinner(randomNumber);\n            emit RandomNumberGenerated(randomNumber); // this is the resulting random number (uint)\n        }\n    }\n}\n",
  "sourcePath": "/Users/pbrudny/jsy/truffle-challanges/contracts/22_raffle_oraclize/Raffle.sol",
  "compiler": {
    "name": "solc",
    "version": "0.4.24+commit.e67f0147.Emscripten.clang"
  },
  "schemaVersion": "2.0.1",
  "updatedAt": "2018-07-28T17:19:52.941Z"
}