{
  "contractName": "RandomExample",
  "abi": [
    {
      "inputs": [],
      "payable": false,
      "stateMutability": "nonpayable",
      "type": "constructor"
    },
    {
      "anonymous": false,
      "inputs": [
        {
          "indexed": false,
          "name": "",
          "type": "bytes"
        }
      ],
      "name": "newRandomNumber_bytes",
      "type": "event"
    },
    {
      "anonymous": false,
      "inputs": [
        {
          "indexed": false,
          "name": "",
          "type": "uint256"
        }
      ],
      "name": "newRandomNumber_uint",
      "type": "event"
    },
    {
      "constant": false,
      "inputs": [
        {
          "name": "myid",
          "type": "bytes32"
        },
        {
          "name": "result",
          "type": "string"
        }
      ],
      "name": "__callback",
      "outputs": [],
      "payable": false,
      "stateMutability": "nonpayable",
      "type": "function"
    },
    {
      "constant": false,
      "inputs": [
        {
          "name": "_queryId",
          "type": "bytes32"
        },
        {
          "name": "_result",
          "type": "string"
        },
        {
          "name": "_proof",
          "type": "bytes"
        }
      ],
      "name": "__callback",
      "outputs": [],
      "payable": false,
      "stateMutability": "nonpayable",
      "type": "function"
    },
    {
      "constant": false,
      "inputs": [],
      "name": "update",
      "outputs": [],
      "payable": true,
      "stateMutability": "payable",
      "type": "function"
    }
  ],
  "bytecode": "0x60806040523480156200001157600080fd5b506200004f60307f0100000000000000000000000000000000000000000000000000000000000000026200006e640100000000026401000000009004565b6200006862000422640100000000026401000000009004565b62002526565b60008060009054906101000a900473ffffffffffffffffffffffffffffffffffffffff1673ffffffffffffffffffffffffffffffffffffffff161480620000ef57506000620000ed6000809054906101000a900473ffffffffffffffffffffffffffffffffffffffff1662000457640100000000026401000000009004565b145b15620001125762000110600062000462640100000000026401000000009004565b505b6000809054906101000a900473ffffffffffffffffffffffffffffffffffffffff1673ffffffffffffffffffffffffffffffffffffffff166338cc48316040518163ffffffff167c0100000000000000000000000000000000000000000000000000000000028152600401602060405180830381600087803b1580156200019857600080fd5b505af1158015620001ad573d6000803e3d6000fd5b505050506040513d6020811015620001c457600080fd5b810190808051906020019092919050505073ffffffffffffffffffffffffffffffffffffffff16600160009054906101000a900473ffffffffffffffffffffffffffffffffffffffff1673ffffffffffffffffffffffffffffffffffffffff1614151562000330576000809054906101000a900473ffffffffffffffffffffffffffffffffffffffff1673ffffffffffffffffffffffffffffffffffffffff166338cc48316040518163ffffffff167c0100000000000000000000000000000000000000000000000000000000028152600401602060405180830381600087803b158015620002b257600080fd5b505af1158015620002c7573d6000803e3d6000fd5b505050506040513d6020811015620002de57600080fd5b8101908080519060200190929190505050600160006101000a81548173ffffffffffffffffffffffffffffffffffffffff021916908373ffffffffffffffffffffffffffffffffffffffff1602179055505b600160009054906101000a900473ffffffffffffffffffffffffffffffffffffffff1673ffffffffffffffffffffffffffffffffffffffff1663688dcfd7826040518263ffffffff167c010000000000000000000000000000000000000000000000000000000002815260040180827effffffffffffffffffffffffffffffffffffffffffffffffffffffffffffff19167effffffffffffffffffffffffffffffffffffffffffffffffffffffffffffff19168152602001915050600060405180830381600087803b1580156200040657600080fd5b505af11580156200041b573d6000803e3d6000fd5b5050505050565b6000806000600792506000915062030d4090506200045182848362000484640100000000026401000000009004565b50505050565b6000813b9050919050565b60006200047d62000aa6640100000000026401000000009004565b9050919050565b6000606080606060006060806200049a62002434565b6000606060008c118015620004b0575060208c11155b1515620004bc57600080fd5b600a8d029c5060016040519080825280601f01601f191660200182016040528015620004f75781602001602082028038833980820191505090505b5098508b7f0100000000000000000000000000000000000000000000000000000000000000028960008151811015156200052d57fe5b9060200101907effffffffffffffffffffffffffffffffffffffffffffffffffffffffffffff1916908160001a90535060206040519080825280601f01601f191660200182016040528015620005925781602001602082028038833980820191505090505b50975060206040519080825280601f01601f191660200182016040528015620005ca5781602001602082028038833980820191505090505b509650620005e662000ffe640100000000026401000000009004565b95506020885242411860014303401860208901526020875285602088015260206040519080825280601f01601f191660200182016040528015620006395781602001602082028038833980820191505090505b5094508c602086015260086040519080825280601f01601f191660200182016040528015620006775781602001602082028038833980820191505090505b5093506200069b85601860088760006200138a640100000000026401000000009004565b506080604051908101604052808981526020018a8152602001888152602001868152509250620007116040805190810160405280600681526020017f72616e646f6d0000000000000000000000000000000000000000000000000000815250848d620013ed640100000000026401000000009004565b915060086040519080825280601f01601f191660200182016040528015620007485781602001602082028038833980820191505090505b50905060208401517f0100000000000000000000000000000000000000000000000000000000000000810460278301537e01000000000000000000000000000000000000000000000000000000000000810460268301537d010000000000000000000000000000000000000000000000000000000000810460258301537c0100000000000000000000000000000000000000000000000000000000810460248301537b01000000000000000000000000000000000000000000000000000000810460238301537a01000000000000000000000000000000000000000000000000000081046022830153790100000000000000000000000000000000000000000000000000810460218301537801000000000000000000000000000000000000000000000000810460208301535062000a9382828560016004811015156200088b57fe5b60200201516002876000600481101515620008a257fe5b60200201516040518082805190602001908083835b602083101515620008de5780518252602082019150602081019050602083039250620008b7565b6001836020036101000a0380198251168184511680821785525050505050509050019150506020604051808303816000865af115801562000923573d6000803e3d6000fd5b5050506040513d60208110156200093957600080fd5b81019080805190602001909291905050508760026004811015156200095a57fe5b60200201516040518085805190602001908083835b6020831015156200099657805182526020820191506020810190506020830392506200096f565b6001836020036101000a03801982511681845116808217855250505050505090500184805190602001908083835b602083101515620009eb5780518252602082019150602081019050602083039250620009c4565b6001836020036101000a038019825116818451168082178552505050505050905001836000191660001916815260200182805190602001908083835b60208310151562000a4e578051825260208201915060208101905060208303925062000a27565b6001836020036101000a0380198251168184511680821785525050505050509050019450505050506040518091039020620017db640100000000026401000000009004565b8199505050505050505050509392505050565b60008062000ad7731d3b2638a7cc9f2cb3d298a3da7a90b67e5506ed62000457640100000000026401000000009004565b111562000b8b57731d3b2638a7cc9f2cb3d298a3da7a90b67e5506ed6000806101000a81548173ffffffffffffffffffffffffffffffffffffffff021916908373ffffffffffffffffffffffffffffffffffffffff16021790555062000b816040805190810160405280600b81526020017f6574685f6d61696e6e657400000000000000000000000000000000000000000081525062001803640100000000026401000000009004565b6001905062000ffb565b600062000bbb73c03a2615d5efaf5f49f60b7bb6583eaec212fdf162000457640100000000026401000000009004565b111562000c6f5773c03a2615d5efaf5f49f60b7bb6583eaec212fdf16000806101000a81548173ffffffffffffffffffffffffffffffffffffffff021916908373ffffffffffffffffffffffffffffffffffffffff16021790555062000c656040805190810160405280600c81526020017f6574685f726f707374656e33000000000000000000000000000000000000000081525062001803640100000000026401000000009004565b6001905062000ffb565b600062000c9f73b7a07bcf2ba2f2703b24c0691b5278999c59ac7e62000457640100000000026401000000009004565b111562000d535773b7a07bcf2ba2f2703b24c0691b5278999c59ac7e6000806101000a81548173ffffffffffffffffffffffffffffffffffffffff021916908373ffffffffffffffffffffffffffffffffffffffff16021790555062000d496040805190810160405280600981526020017f6574685f6b6f76616e000000000000000000000000000000000000000000000081525062001803640100000000026401000000009004565b6001905062000ffb565b600062000d8373146500cfd35b22e4a392fe0adc06de1a1368ed4862000457640100000000026401000000009004565b111562000e375773146500cfd35b22e4a392fe0adc06de1a1368ed486000806101000a81548173ffffffffffffffffffffffffffffffffffffffff021916908373ffffffffffffffffffffffffffffffffffffffff16021790555062000e2d6040805190810160405280600b81526020017f6574685f72696e6b65627900000000000000000000000000000000000000000081525062001803640100000000026401000000009004565b6001905062000ffb565b600062000e67736f485c8bf6fc43ea212e93bbf8ce046c7f1cb47562000457640100000000026401000000009004565b111562000ecc57736f485c8bf6fc43ea212e93bbf8ce046c7f1cb4756000806101000a81548173ffffffffffffffffffffffffffffffffffffffff021916908373ffffffffffffffffffffffffffffffffffffffff1602179055506001905062000ffb565b600062000efc7320e12a1f859b3feae5fb2a0a32c18f5a65555bbf62000457640100000000026401000000009004565b111562000f61577320e12a1f859b3feae5fb2a0a32c18f5a65555bbf6000806101000a81548173ffffffffffffffffffffffffffffffffffffffff021916908373ffffffffffffffffffffffffffffffffffffffff1602179055506001905062000ffb565b600062000f917351efaf4c8b3c9afbd5ab9f4bbc82784ab6ef8faa62000457640100000000026401000000009004565b111562000ff6577351efaf4c8b3c9afbd5ab9f4bbc82784ab6ef8faa6000806101000a81548173ffffffffffffffffffffffffffffffffffffffff021916908373ffffffffffffffffffffffffffffffffffffffff1602179055506001905062000ffb565b600090505b90565b6000806000809054906101000a900473ffffffffffffffffffffffffffffffffffffffff1673ffffffffffffffffffffffffffffffffffffffff16148062001080575060006200107e6000809054906101000a900473ffffffffffffffffffffffffffffffffffffffff1662000457640100000000026401000000009004565b145b15620010a357620010a1600062000462640100000000026401000000009004565b505b6000809054906101000a900473ffffffffffffffffffffffffffffffffffffffff1673ffffffffffffffffffffffffffffffffffffffff166338cc48316040518163ffffffff167c0100000000000000000000000000000000000000000000000000000000028152600401602060405180830381600087803b1580156200112957600080fd5b505af11580156200113e573d6000803e3d6000fd5b505050506040513d60208110156200115557600080fd5b810190808051906020019092919050505073ffffffffffffffffffffffffffffffffffffffff16600160009054906101000a900473ffffffffffffffffffffffffffffffffffffffff1673ffffffffffffffffffffffffffffffffffffffff16141515620012c1576000809054906101000a900473ffffffffffffffffffffffffffffffffffffffff1673ffffffffffffffffffffffffffffffffffffffff166338cc48316040518163ffffffff167c0100000000000000000000000000000000000000000000000000000000028152600401602060405180830381600087803b1580156200124357600080fd5b505af115801562001258573d6000803e3d6000fd5b505050506040513d60208110156200126f57600080fd5b8101908080519060200190929190505050600160006101000a81548173ffffffffffffffffffffffffffffffffffffffff021916908373ffffffffffffffffffffffffffffffffffffffff1602179055505b600160009054906101000a900473ffffffffffffffffffffffffffffffffffffffff1673ffffffffffffffffffffffffffffffffffffffff1663abaa5f3e6040518163ffffffff167c0100000000000000000000000000000000000000000000000000000000028152600401602060405180830381600087803b1580156200134857600080fd5b505af11580156200135d573d6000803e3d6000fd5b505050506040513d60208110156200137457600080fd5b8101908080519060200190929190505050905090565b60606000806000848701925082865110151515620013a757600080fd5b8760200191508460200190505b868860200101821015620013de5781890151808288015250602082019150602081019050620013b4565b85935050505095945050505050565b6000606060008060009054906101000a900473ffffffffffffffffffffffffffffffffffffffff1673ffffffffffffffffffffffffffffffffffffffff1614806200147257506000620014706000809054906101000a900473ffffffffffffffffffffffffffffffffffffffff1662000457640100000000026401000000009004565b145b15620014955762001493600062000462640100000000026401000000009004565b505b6000809054906101000a900473ffffffffffffffffffffffffffffffffffffffff1673ffffffffffffffffffffffffffffffffffffffff166338cc48316040518163ffffffff167c0100000000000000000000000000000000000000000000000000000000028152600401602060405180830381600087803b1580156200151b57600080fd5b505af115801562001530573d6000803e3d6000fd5b505050506040513d60208110156200154757600080fd5b810190808051906020019092919050505073ffffffffffffffffffffffffffffffffffffffff16600160009054906101000a900473ffffffffffffffffffffffffffffffffffffffff1673ffffffffffffffffffffffffffffffffffffffff16141515620016b3576000809054906101000a900473ffffffffffffffffffffffffffffffffffffffff1673ffffffffffffffffffffffffffffffffffffffff166338cc48316040518163ffffffff167c0100000000000000000000000000000000000000000000000000000000028152600401602060405180830381600087803b1580156200163557600080fd5b505af11580156200164a573d6000803e3d6000fd5b505050506040513d60208110156200166157600080fd5b8101908080519060200190929190505050600160006101000a81548173ffffffffffffffffffffffffffffffffffffffff021916908373ffffffffffffffffffffffffffffffffffffffff1602179055505b6004604051908082528060200260200182016040528015620016ea57816020015b6060815260200190600190039081620016d45790505b509050836000600481101515620016fd57fe5b60200201518160008151811015156200171257fe5b906020019060200201819052508360016004811015156200172f57fe5b60200201518160018151811015156200174457fe5b906020019060200201819052508360026004811015156200176157fe5b60200201518160028151811015156200177657fe5b906020019060200201819052508360036004811015156200179357fe5b6020020151816003815181101515620017a857fe5b90602001906020020181905250620017d18582856200181f640100000000026401000000009004565b9150509392505050565b8060036000846000191660001916815260200190815260200160002081600019169055505050565b80600290805190602001906200181b9291906200245d565b5050565b600080606060008060009054906101000a900473ffffffffffffffffffffffffffffffffffffffff1673ffffffffffffffffffffffffffffffffffffffff161480620018a557506000620018a36000809054906101000a900473ffffffffffffffffffffffffffffffffffffffff1662000457640100000000026401000000009004565b145b15620018c857620018c6600062000462640100000000026401000000009004565b505b6000809054906101000a900473ffffffffffffffffffffffffffffffffffffffff1673ffffffffffffffffffffffffffffffffffffffff166338cc48316040518163ffffffff167c0100000000000000000000000000000000000000000000000000000000028152600401602060405180830381600087803b1580156200194e57600080fd5b505af115801562001963573d6000803e3d6000fd5b505050506040513d60208110156200197a57600080fd5b810190808051906020019092919050505073ffffffffffffffffffffffffffffffffffffffff16600160009054906101000a900473ffffffffffffffffffffffffffffffffffffffff1673ffffffffffffffffffffffffffffffffffffffff1614151562001ae6576000809054906101000a900473ffffffffffffffffffffffffffffffffffffffff1673ffffffffffffffffffffffffffffffffffffffff166338cc48316040518163ffffffff167c0100000000000000000000000000000000000000000000000000000000028152600401602060405180830381600087803b15801562001a6857600080fd5b505af115801562001a7d573d6000803e3d6000fd5b505050506040513d602081101562001a9457600080fd5b8101908080519060200190929190505050600160006101000a81548173ffffffffffffffffffffffffffffffffffffffff021916908373ffffffffffffffffffffffffffffffffffffffff1602179055505b600160009054906101000a900473ffffffffffffffffffffffffffffffffffffffff1673ffffffffffffffffffffffffffffffffffffffff16632ef3accc87866040518363ffffffff167c01000000000000000000000000000000000000000000000000000000000281526004018080602001838152602001828103825284818151815260200191508051906020019080838360005b8381101562001b9957808201518184015260208101905062001b7c565b50505050905090810190601f16801562001bc75780820380516001836020036101000a031916815260200191505b509350505050602060405180830381600087803b15801562001be857600080fd5b505af115801562001bfd573d6000803e3d6000fd5b505050506040513d602081101562001c1457600080fd5b81019080805190602001909291905050509150833a02670de0b6b3a76400000182111562001c49576000600102925062001e21565b62001c638562001e2a640100000000026401000000009004565b9050600160009054906101000a900473ffffffffffffffffffffffffffffffffffffffff1673ffffffffffffffffffffffffffffffffffffffff1663c55c1cb68360008985896040518663ffffffff167c0100000000000000000000000000000000000000000000000000000000028152600401808581526020018060200180602001848152602001838103835286818151815260200191508051906020019080838360005b8381101562001d2657808201518184015260208101905062001d09565b50505050905090810190601f16801562001d545780820380516001836020036101000a031916815260200191505b50838103825285818151815260200191508051906020019080838360005b8381101562001d8f57808201518184015260208101905062001d72565b50505050905090810190601f16801562001dbd5780820380516001836020036101000a031916815260200191505b5096505050505050506020604051808303818588803b15801562001de057600080fd5b505af115801562001df5573d6000803e3d6000fd5b50505050506040513d602081101562001e0d57600080fd5b810190808051906020019092919050505092505b50509392505050565b606062001e36620024e4565b600062001e5162001f17640100000000026401000000009004565b62001e738261040062001f2364010000000002620034a5176401000000009004565b62001e928262001f7664010000000002620034f5176401000000009004565b600090505b835181101562001eea5762001edc848281518110151562001eb457fe5b906020019060200201518362001f956401000000000262003503179091906401000000009004565b808060010191505062001e97565b62001f098262001fdb6401000000000262003528176401000000009004565b816000015192505050919050565b60405180590338823950565b6000819050600060208281151562001f3757fe5b0614151562001f565760208181151562001f4d57fe5b06602003810190505b808360200181815250506040518084526000815281810160405250505050565b62001f9281600462001ffa640100000000026401000000009004565b50565b62001fb382600283516200202e640100000000026401000000009004565b62001fd681836200222064010000000002620036b3179091906401000000009004565b505050565b62001ff781600762001ffa640100000000026401000000009004565b50565b6200202a601f60058360ff169060020a021783620022f3640100000000026200375f179091906401000000009004565b5050565b60178111151562002071576200206b8160058460ff169060020a0260ff161784620022f3640100000000026200375f179091906401000000009004565b6200221b565b60ff81111515620020d957620020ac601860058460ff169060020a021784620022f3640100000000026200375f179091906401000000009004565b620020d28160018562002345640100000000026200379f17909291906401000000009004565b506200221a565b61ffff81111515620021425762002115601960058460ff169060020a021784620022f3640100000000026200375f179091906401000000009004565b6200213b8160028562002345640100000000026200379f17909291906401000000009004565b5062002219565b63ffffffff81111515620021ad5762002180601a60058460ff169060020a021784620022f3640100000000026200375f179091906401000000009004565b620021a68160048562002345640100000000026200379f17909291906401000000009004565b5062002218565b67ffffffffffffffff811115156200221757620021ef601b60058460ff169060020a021784620022f3640100000000026200375f179091906401000000009004565b620022158160088562002345640100000000026200379f17909291906401000000009004565b505b5b5b5b5b505050565b6200222a620024e4565b600080600080866020015187600001515187510111156200228357620022828760026200226c8a602001518a51620023d1640100000000026401000000009004565b02620023ef640100000000026401000000009004565b5b8551915086518051602081830101955087518101825260208801945050505b602082101515620022c95782518452602084019350602083019250602082039150620022a2565b6001826020036101000a039050801983511681855116818117865250508694505050505092915050565b816020015160018360000151510111156200232b576200232a826002846020015102620023ef640100000000026401000000009004565b5b815180516020818301018381536001820183525050505050565b6200234f620024e4565b6000846020015185600001515184011115620023a257620023a18560026200238b886020015187620023d1640100000000026401000000009004565b02620023ef640100000000026401000000009004565b5b6001836101000a0390508451805184818301018684198251161781528582018352505050849150509392505050565b600081831115620023e557829050620023e9565b8190505b92915050565b60608260000151905062002413838362001f23640100000000026401000000009004565b6200242e838262002220640100000000026401000000009004565b50505050565b6080604051908101604052806004905b6060815260200190600190039081620024445790505090565b828054600181600116156101000203166002900490600052602060002090601f016020900481019282601f10620024a057805160ff1916838001178555620024d1565b82800160010185558215620024d1579182015b82811115620024d0578251825591602001919060010190620024b3565b5b509050620024e09190620024fe565b5090565b604080519081016040528060608152602001600081525090565b6200252391905b808211156200251f57600081600090555060010162002505565b5090565b90565b61395880620025366000396000f300608060405260043610610057576000357c0100000000000000000000000000000000000000000000000000000000900463ffffffff16806327dc297e1461005c57806338bbfa50146100d3578063a2e6204514610190575b600080fd5b34801561006857600080fd5b506100d16004803603810190808035600019169060200190929190803590602001908201803590602001908080601f016020809104026020016040519081016040528093929190818152602001838380828437820191505050505050919291929050505061019a565b005b3480156100df57600080fd5b5061018e6004803603810190808035600019169060200190929190803590602001908201803590602001908080601f0160208091040260200160405190810160405280939291908181526020018383808284378201915050505050509192919290803590602001908201803590602001908080601f01602080910402602001604051908101604052809392919081815260200183838082843782019150505050505091929192905050506101dd565b005b610198610403565b005b6101d9828260006040519080825280601f01601f1916602001820160405280156101d35781602001602082028038833980820191505090505b506101dd565b5050565b6000806101e8610427565b73ffffffffffffffffffffffffffffffffffffffff163373ffffffffffffffffffffffffffffffffffffffff1614151561022157600080fd5b600061022e868686610785565b60ff1614151561023d576103fc565b7fab2f9e7e7e74d54a49792fd7ff57c497b14cd2bad49d7537937a5a527a50f0ac846040518080602001828103825283818151815260200191508051906020019080838360005b8381101561029f578082015181840152602081019050610284565b50505050905090810190601f1680156102cc5780820380516001836020036101000a031916815260200191505b509250505060405180910390a1670100000000000000915081846040516020018082805190602001908083835b60208310151561031e57805182526020820191506020810190506020830392506102f9565b6001836020036101000a0380198251168184511680821785525050505050509050019150506040516020818303038152906040526040518082805190602001908083835b6020831015156103875780518252602082019150602081019050602083039250610362565b6001836020036101000a0380198251168184511680821785525050505050509050019150506040518091039020600190048115156103c157fe5b0690507fb084d8f103616749e12a8d363f0b50f8bb8568b4086c093bd88140c74042c47a816040518082815260200191505060405180910390a15b5050505050565b6000806000600792506000915062030d4090506104218284836109bc565b50505050565b6000806000809054906101000a900473ffffffffffffffffffffffffffffffffffffffff1673ffffffffffffffffffffffffffffffffffffffff161480610497575060006104956000809054906101000a900473ffffffffffffffffffffffffffffffffffffffff16610f82565b145b156104a8576104a66000610f8d565b505b6000809054906101000a900473ffffffffffffffffffffffffffffffffffffffff1673ffffffffffffffffffffffffffffffffffffffff166338cc48316040518163ffffffff167c0100000000000000000000000000000000000000000000000000000000028152600401602060405180830381600087803b15801561052d57600080fd5b505af1158015610541573d6000803e3d6000fd5b505050506040513d602081101561055757600080fd5b810190808051906020019092919050505073ffffffffffffffffffffffffffffffffffffffff16600160009054906101000a900473ffffffffffffffffffffffffffffffffffffffff1673ffffffffffffffffffffffffffffffffffffffff161415156106bf576000809054906101000a900473ffffffffffffffffffffffffffffffffffffffff1673ffffffffffffffffffffffffffffffffffffffff166338cc48316040518163ffffffff167c0100000000000000000000000000000000000000000000000000000000028152600401602060405180830381600087803b15801561064357600080fd5b505af1158015610657573d6000803e3d6000fd5b505050506040513d602081101561066d57600080fd5b8101908080519060200190929190505050600160006101000a81548173ffffffffffffffffffffffffffffffffffffffff021916908373ffffffffffffffffffffffffffffffffffffffff1602179055505b600160009054906101000a900473ffffffffffffffffffffffffffffffffffffffff1673ffffffffffffffffffffffffffffffffffffffff1663c281d19e6040518163ffffffff167c0100000000000000000000000000000000000000000000000000000000028152600401602060405180830381600087803b15801561074557600080fd5b505af1158015610759573d6000803e3d6000fd5b505050506040513d602081101561076f57600080fd5b8101908080519060200190929190505050905090565b6000807f4c000000000000000000000000000000000000000000000000000000000000008360008151811015156107b857fe5b9060200101517f010000000000000000000000000000000000000000000000000000000000000090047f0100000000000000000000000000000000000000000000000000000000000000027effffffffffffffffffffffffffffffffffffffffffffffffffffffffffffff19161415806108cd57507f500000000000000000000000000000000000000000000000000000000000000083600181518110151561085d57fe5b9060200101517f010000000000000000000000000000000000000000000000000000000000000090047f0100000000000000000000000000000000000000000000000000000000000000027effffffffffffffffffffffffffffffffffffffffffffffffffffffffffffff191614155b80610976575060017f01000000000000000000000000000000000000000000000000000000000000000283600281518110151561090657fe5b9060200101517f010000000000000000000000000000000000000000000000000000000000000090047f0100000000000000000000000000000000000000000000000000000000000000027effffffffffffffffffffffffffffffffffffffffffffffffffffffffffffff191614155b1561098457600191506109b4565b610997838686610992610f9e565b611040565b90506000151581151514156109af57600291506109b4565b600091505b509392505050565b6000606080606060006060806109d0613845565b6000606060008c1180156109e5575060208c11155b15156109f057600080fd5b600a8d029c5060016040519080825280601f01601f191660200182016040528015610a2a5781602001602082028038833980820191505090505b5098508b7f010000000000000000000000000000000000000000000000000000000000000002896000815181101515610a5f57fe5b9060200101907effffffffffffffffffffffffffffffffffffffffffffffffffffffffffffff1916908160001a90535060206040519080825280601f01601f191660200182016040528015610ac35781602001602082028038833980820191505090505b50975060206040519080825280601f01601f191660200182016040528015610afa5781602001602082028038833980820191505090505b509650610b05611830565b95506020885242411860014303401860208901526020875285602088015260206040519080825280601f01601f191660200182016040528015610b575781602001602082028038833980820191505090505b5094508c602086015260086040519080825280601f01601f191660200182016040528015610b945781602001602082028038833980820191505090505b509350610ba78560186008876000611b8e565b506080604051908101604052808981526020018a8152602001888152602001868152509250610c0c6040805190810160405280600681526020017f72616e646f6d0000000000000000000000000000000000000000000000000000815250848d611bee565b915060086040519080825280601f01601f191660200182016040528015610c425781602001602082028038833980820191505090505b50905060208401517f0100000000000000000000000000000000000000000000000000000000000000810460278301537e01000000000000000000000000000000000000000000000000000000000000810460268301537d010000000000000000000000000000000000000000000000000000000000810460258301537c0100000000000000000000000000000000000000000000000000000000810460248301537b01000000000000000000000000000000000000000000000000000000810460238301537a010000000000000000000000000000000000000000000000000000810460228301537901000000000000000000000000000000000000000000000000008104602183015378010000000000000000000000000000000000000000000000008104602083015350610f6f8282856001600481101515610d8357fe5b60200201516002876000600481101515610d9957fe5b60200201516040518082805190602001908083835b602083101515610dd35780518252602082019150602081019050602083039250610dae565b6001836020036101000a0380198251168184511680821785525050505050509050019150506020604051808303816000865af1158015610e17573d6000803e3d6000fd5b5050506040513d6020811015610e2c57600080fd5b8101908080519060200190929190505050876002600481101515610e4c57fe5b60200201516040518085805190602001908083835b602083101515610e865780518252602082019150602081019050602083039250610e61565b6001836020036101000a03801982511681845116808217855250505050505090500184805190602001908083835b602083101515610ed95780518252602082019150602081019050602083039250610eb4565b6001836020036101000a038019825116818451168082178552505050505050905001836000191660001916815260200182805190602001908083835b602083101515610f3a5780518252602082019150602081019050602083039250610f15565b6001836020036101000a0380198251168184511680821785525050505050509050019450505050506040518091039020611f96565b8199505050505050505050509392505050565b6000813b9050919050565b6000610f97611fbe565b9050919050565b606060028054600181600116156101000203166002900480601f0160208091040260200160405190810160405280929190818152602001828054600181600116156101000203166002900480156110365780601f1061100b57610100808354040283529160200191611036565b820191906000526020600020905b81548152906001019060200180831161101957829003601f168201915b5050505050905090565b6000806060806060806000806060602060028e604581518110151561106157fe5b9060200101517f010000000000000000000000000000000000000000000000000000000000000090047f0100000000000000000000000000000000000000000000000000000000000000027f010000000000000000000000000000000000000000000000000000000000000090040160440101975060206040519080825280601f01601f19166020018201604052801561110a5781602001602082028038833980820191505090505b50965061111c8d8960208a6000611b8e565b5060028a8d6040518083805190602001908083835b6020831015156111565780518252602082019150602081019050602083039250611131565b6001836020036101000a0380198251168184511680821785525050505050509050018260001916600019168152602001925050506020604051808303816000865af11580156111a9573d6000803e3d6000fd5b5050506040513d60208110156111be57600080fd5b8101908080519060200190929190505050604051808260001916600019168152602001915050604051809103902060001916876040518082805190602001908083835b6020831015156112265780518252602082019150602081019050602083039250611201565b6001836020036101000a0380198251168184511680821785525050505050509050019150506040518091039020600019161415156112675760009850611820565b60028d600160498b010181518110151561127d57fe5b9060200101517f010000000000000000000000000000000000000000000000000000000000000090047f0100000000000000000000000000000000000000000000000000000000000000027f01000000000000000000000000000000000000000000000000000000000000009004016040519080825280601f01601f19166020018201604052801561131e5781602001602082028038833980820191505090505b5095506113338d60498a018851896000611b8e565b506114616002876040518082805190602001908083835b60208310151561136f578051825260208201915060208101905060208303925061134a565b6001836020036101000a0380198251168184511680821785525050505050509050019150506020604051808303816000865af11580156113b3573d6000803e3d6000fd5b5050506040513d60208110156113c857600080fd5b81019080805190602001909291905050508c8f600860208d01018151811015156113ee57fe5b9060200101517f010000000000000000000000000000000000000000000000000000000000000090047f0100000000000000000000000000000000000000000000000000000000000000027f0100000000000000000000000000000000000000000000000000000000000000900461244d565b15156114705760009850611820565b60296040519080825280601f01601f1916602001820160405280156114a45781602001602082028038833980820191505090505b5094506114b98d60208a016029886000611b8e565b50604080519080825280601f01601f1916602001820160405280156114ed5781602001602082028038833980820191505090505b50935060418651602960208b0101010192506115118d604085036040876000611b8e565b506002846040518082805190602001908083835b60208310151561154a5780518252602082019150602081019050602083039250611525565b6001836020036101000a0380198251168184511680821785525050505050509050019150506020604051808303816000865af115801561158e573d6000803e3d6000fd5b5050506040513d60208110156115a357600080fd5b8101908080519060200190929190505050915084826040518083805190602001908083835b6020831015156115ed57805182526020820191506020810190506020830392506115c8565b6001836020036101000a038019825116818451168082178552505050505050905001826000191660001916815260200192505050604051809103902060001916600360008e600019166000191681526020019081526020016000205460001916141561167757600360008d6000191660001916815260200190815260200160002060009055611680565b60009850611820565b60496040519080825280601f01601f1916602001820160405280156116b45781602001602082028038833980820191505090505b5090506116c68d896049846000611b8e565b506117736002826040518082805190602001908083835b60208310151561170257805182526020820191506020810190506020830392506116dd565b6001836020036101000a0380198251168184511680821785525050505050509050019150506020604051808303816000865af1158015611746573d6000803e3d6000fd5b5050506040513d602081101561175b57600080fd5b81019080805190602001909291905050508786612565565b15156117825760009850611820565b6000151560046000846000191660001916815260200190815260200160002060009054906101000a900460ff16151514156117f4576117c18d84612892565b60046000846000191660001916815260200190815260200160002060006101000a81548160ff0219169083151502179055505b60046000836000191660001916815260200190815260200160002060009054906101000a900460ff1698505b5050505050505050949350505050565b6000806000809054906101000a900473ffffffffffffffffffffffffffffffffffffffff1673ffffffffffffffffffffffffffffffffffffffff1614806118a05750600061189e6000809054906101000a900473ffffffffffffffffffffffffffffffffffffffff16610f82565b145b156118b1576118af6000610f8d565b505b6000809054906101000a900473ffffffffffffffffffffffffffffffffffffffff1673ffffffffffffffffffffffffffffffffffffffff166338cc48316040518163ffffffff167c0100000000000000000000000000000000000000000000000000000000028152600401602060405180830381600087803b15801561193657600080fd5b505af115801561194a573d6000803e3d6000fd5b505050506040513d602081101561196057600080fd5b810190808051906020019092919050505073ffffffffffffffffffffffffffffffffffffffff16600160009054906101000a900473ffffffffffffffffffffffffffffffffffffffff1673ffffffffffffffffffffffffffffffffffffffff16141515611ac8576000809054906101000a900473ffffffffffffffffffffffffffffffffffffffff1673ffffffffffffffffffffffffffffffffffffffff166338cc48316040518163ffffffff167c0100000000000000000000000000000000000000000000000000000000028152600401602060405180830381600087803b158015611a4c57600080fd5b505af1158015611a60573d6000803e3d6000fd5b505050506040513d6020811015611a7657600080fd5b8101908080519060200190929190505050600160006101000a81548173ffffffffffffffffffffffffffffffffffffffff021916908373ffffffffffffffffffffffffffffffffffffffff1602179055505b600160009054906101000a900473ffffffffffffffffffffffffffffffffffffffff1673ffffffffffffffffffffffffffffffffffffffff1663abaa5f3e6040518163ffffffff167c0100000000000000000000000000000000000000000000000000000000028152600401602060405180830381600087803b158015611b4e57600080fd5b505af1158015611b62573d6000803e3d6000fd5b505050506040513d6020811015611b7857600080fd5b8101908080519060200190929190505050905090565b60606000806000848701925082865110151515611baa57600080fd5b8760200191508460200190505b868860200101821015611bdf5781890151808288015250602082019150602081019050611bb7565b85935050505095945050505050565b6000606060008060009054906101000a900473ffffffffffffffffffffffffffffffffffffffff1673ffffffffffffffffffffffffffffffffffffffff161480611c6157506000611c5f6000809054906101000a900473ffffffffffffffffffffffffffffffffffffffff16610f82565b145b15611c7257611c706000610f8d565b505b6000809054906101000a900473ffffffffffffffffffffffffffffffffffffffff1673ffffffffffffffffffffffffffffffffffffffff166338cc48316040518163ffffffff167c0100000000000000000000000000000000000000000000000000000000028152600401602060405180830381600087803b158015611cf757600080fd5b505af1158015611d0b573d6000803e3d6000fd5b505050506040513d6020811015611d2157600080fd5b810190808051906020019092919050505073ffffffffffffffffffffffffffffffffffffffff16600160009054906101000a900473ffffffffffffffffffffffffffffffffffffffff1673ffffffffffffffffffffffffffffffffffffffff16141515611e89576000809054906101000a900473ffffffffffffffffffffffffffffffffffffffff1673ffffffffffffffffffffffffffffffffffffffff166338cc48316040518163ffffffff167c0100000000000000000000000000000000000000000000000000000000028152600401602060405180830381600087803b158015611e0d57600080fd5b505af1158015611e21573d6000803e3d6000fd5b505050506040513d6020811015611e3757600080fd5b8101908080519060200190929190505050600160006101000a81548173ffffffffffffffffffffffffffffffffffffffff021916908373ffffffffffffffffffffffffffffffffffffffff1602179055505b6004604051908082528060200260200182016040528015611ebe57816020015b6060815260200190600190039081611ea95790505b509050836000600481101515611ed057fe5b6020020151816000815181101515611ee457fe5b90602001906020020181905250836001600481101515611f0057fe5b6020020151816001815181101515611f1457fe5b90602001906020020181905250836002600481101515611f3057fe5b6020020151816002815181101515611f4457fe5b90602001906020020181905250836003600481101515611f6057fe5b6020020151816003815181101515611f7457fe5b90602001906020020181905250611f8c858285612df8565b9150509392505050565b8060036000846000191660001916815260200190815260200160002081600019169055505050565b600080611fde731d3b2638a7cc9f2cb3d298a3da7a90b67e5506ed610f82565b111561207f57731d3b2638a7cc9f2cb3d298a3da7a90b67e5506ed6000806101000a81548173ffffffffffffffffffffffffffffffffffffffff021916908373ffffffffffffffffffffffffffffffffffffffff1602179055506120766040805190810160405280600b81526020017f6574685f6d61696e6e65740000000000000000000000000000000000000000008152506133b6565b6001905061244a565b600061209e73c03a2615d5efaf5f49f60b7bb6583eaec212fdf1610f82565b111561213f5773c03a2615d5efaf5f49f60b7bb6583eaec212fdf16000806101000a81548173ffffffffffffffffffffffffffffffffffffffff021916908373ffffffffffffffffffffffffffffffffffffffff1602179055506121366040805190810160405280600c81526020017f6574685f726f707374656e3300000000000000000000000000000000000000008152506133b6565b6001905061244a565b600061215e73b7a07bcf2ba2f2703b24c0691b5278999c59ac7e610f82565b11156121ff5773b7a07bcf2ba2f2703b24c0691b5278999c59ac7e6000806101000a81548173ffffffffffffffffffffffffffffffffffffffff021916908373ffffffffffffffffffffffffffffffffffffffff1602179055506121f66040805190810160405280600981526020017f6574685f6b6f76616e00000000000000000000000000000000000000000000008152506133b6565b6001905061244a565b600061221e73146500cfd35b22e4a392fe0adc06de1a1368ed48610f82565b11156122bf5773146500cfd35b22e4a392fe0adc06de1a1368ed486000806101000a81548173ffffffffffffffffffffffffffffffffffffffff021916908373ffffffffffffffffffffffffffffffffffffffff1602179055506122b66040805190810160405280600b81526020017f6574685f72696e6b6562790000000000000000000000000000000000000000008152506133b6565b6001905061244a565b60006122de736f485c8bf6fc43ea212e93bbf8ce046c7f1cb475610f82565b111561234157736f485c8bf6fc43ea212e93bbf8ce046c7f1cb4756000806101000a81548173ffffffffffffffffffffffffffffffffffffffff021916908373ffffffffffffffffffffffffffffffffffffffff1602179055506001905061244a565b60006123607320e12a1f859b3feae5fb2a0a32c18f5a65555bbf610f82565b11156123c3577320e12a1f859b3feae5fb2a0a32c18f5a65555bbf6000806101000a81548173ffffffffffffffffffffffffffffffffffffffff021916908373ffffffffffffffffffffffffffffffffffffffff1602179055506001905061244a565b60006123e27351efaf4c8b3c9afbd5ab9f4bbc82784ab6ef8faa610f82565b1115612445577351efaf4c8b3c9afbd5ab9f4bbc82784ab6ef8faa6000806101000a81548173ffffffffffffffffffffffffffffffffffffffff021916908373ffffffffffffffffffffffffffffffffffffffff1602179055506001905061244a565b600090505b90565b60008060006001915083855114151561246557600080fd5b600090505b8381101561255957848181518110151561248057fe5b9060200101517f010000000000000000000000000000000000000000000000000000000000000090047f0100000000000000000000000000000000000000000000000000000000000000027effffffffffffffffffffffffffffffffffffffffffffffffffffffffffffff191686826020811015156124fb57fe5b1a7f0100000000000000000000000000000000000000000000000000000000000000027effffffffffffffffffffffffffffffffffffffffffffffffffffffffffffff191614151561254c57600091505b808060010191505061246a565b81925050509392505050565b600080600080600060606000606060206040519080825280601f01601f1916602001820160405280156125a75781602001602082028038833980820191505090505b50925060208a60038151811015156125bb57fe5b9060200101517f010000000000000000000000000000000000000000000000000000000000000090047f0100000000000000000000000000000000000000000000000000000000000000027f0100000000000000000000000000000000000000000000000000000000000000900403600401915061263e8a836020866000611b8e565b925060206040519080825280601f01601f1916602001820160405280156126745781602001602082028038833980820191505090505b50905060228201915061270f8a60208c6001860381518110151561269457fe5b9060200101517f010000000000000000000000000000000000000000000000000000000000000090047f0100000000000000000000000000000000000000000000000000000000000000027f010000000000000000000000000000000000000000000000000000000000000090040384016020846000611b8e565b9050602083015194506020810151935061272c8b601b87876133d0565b80975081985050508573ffffffffffffffffffffffffffffffffffffffff16896040518082805190602001908083835b602083101515612781578051825260208201915060208101905060208303925061275c565b6001836020036101000a03801982511681845116808217855250505050505090500191505060405180910390206001900473ffffffffffffffffffffffffffffffffffffffff1614156127d75760019750612884565b6127e48b601c87876133d0565b80975081985050508573ffffffffffffffffffffffffffffffffffffffff16896040518082805190602001908083835b6020831015156128395780518252602082019150602081019050602083039250612814565b6001836020036101000a03801982511681845116808217855250505050505090500191505060405180910390206001900473ffffffffffffffffffffffffffffffffffffffff161497505b505050505050509392505050565b600080606080606080606080606060028b60018c018151811015156128b357fe5b9060200101517f010000000000000000000000000000000000000000000000000000000000000090047f0100000000000000000000000000000000000000000000000000000000000000027f01000000000000000000000000000000000000000000000000000000000000009004016040519080825280601f01601f1916602001820160405280156129545781602001602082028038833980820191505090505b5096506129668b8b89518a6000611b8e565b50604080519080825280601f01601f19166020018201604052801561299a5781602001602082028038833980820191505090505b5095506129ad8b60046040896000611b8e565b5060626040519080825280601f01601f1916602001820160405280156129e25781602001602082028038833980820191505090505b50945060017f010000000000000000000000000000000000000000000000000000000000000002856000815181101515612a1857fe5b9060200101907effffffffffffffffffffffffffffffffffffffffffffffffffffffffffffff1916908160001a905350612a5a8b60418c036041886001611b8e565b506040805190810160405280602081526020017ffd94fa71bc0ba10d39d464d0d8f465efeef0a2764e3887fcc9df41ded20f505c8152509350612aa38460006020886042611b8e565b50612b506002866040518082805190602001908083835b602083101515612adf5780518252602082019150602081019050602083039250612aba565b6001836020036101000a0380198251168184511680821785525050505050509050019150506020604051808303816000865af1158015612b23573d6000803e3d6000fd5b5050506040513d6020811015612b3857600080fd5b81019080805190602001909291905050508888612565565b9750600015158815151415612b685760009850612dea565b606060405190810160405280604081526020017f7fb956469c5c9b89840d55b43537e66a98dd4811ea0a27224272c2e5622911e881526020017f537a2f8e86a46baec82864e98dd01e9ccc2f8bc5dfc9cbe5a91a290498dd96e4815250925060426040519080825280601f01601f191660200182016040528015612bfb5781602001602082028038833980820191505090505b50915060fe7f010000000000000000000000000000000000000000000000000000000000000002826000815181101515612c3157fe5b9060200101907effffffffffffffffffffffffffffffffffffffffffffffffffffffffffffff1916908160001a905350612c718b60036041856001611b8e565b5060028b6045815181101515612c8357fe5b9060200101517f010000000000000000000000000000000000000000000000000000000000000090047f0100000000000000000000000000000000000000000000000000000000000000027f01000000000000000000000000000000000000000000000000000000000000009004016040519080825280601f01601f191660200182016040528015612d245781602001602082028038833980820191505090505b509050612d378b60448351846000611b8e565b50612de46002836040518082805190602001908083835b602083101515612d735780518252602082019150602081019050602083039250612d4e565b6001836020036101000a0380198251168184511680821785525050505050509050019150506020604051808303816000865af1158015612db7573d6000803e3d6000fd5b5050506040513d6020811015612dcc57600080fd5b81019080805190602001909291905050508285612565565b97508798505b505050505050505092915050565b600080606060008060009054906101000a900473ffffffffffffffffffffffffffffffffffffffff1673ffffffffffffffffffffffffffffffffffffffff161480612e6c57506000612e6a6000809054906101000a900473ffffffffffffffffffffffffffffffffffffffff16610f82565b145b15612e7d57612e7b6000610f8d565b505b6000809054906101000a900473ffffffffffffffffffffffffffffffffffffffff1673ffffffffffffffffffffffffffffffffffffffff166338cc48316040518163ffffffff167c0100000000000000000000000000000000000000000000000000000000028152600401602060405180830381600087803b158015612f0257600080fd5b505af1158015612f16573d6000803e3d6000fd5b505050506040513d6020811015612f2c57600080fd5b810190808051906020019092919050505073ffffffffffffffffffffffffffffffffffffffff16600160009054906101000a900473ffffffffffffffffffffffffffffffffffffffff1673ffffffffffffffffffffffffffffffffffffffff16141515613094576000809054906101000a900473ffffffffffffffffffffffffffffffffffffffff1673ffffffffffffffffffffffffffffffffffffffff166338cc48316040518163ffffffff167c0100000000000000000000000000000000000000000000000000000000028152600401602060405180830381600087803b15801561301857600080fd5b505af115801561302c573d6000803e3d6000fd5b505050506040513d602081101561304257600080fd5b8101908080519060200190929190505050600160006101000a81548173ffffffffffffffffffffffffffffffffffffffff021916908373ffffffffffffffffffffffffffffffffffffffff1602179055505b600160009054906101000a900473ffffffffffffffffffffffffffffffffffffffff1673ffffffffffffffffffffffffffffffffffffffff16632ef3accc87866040518363ffffffff167c01000000000000000000000000000000000000000000000000000000000281526004018080602001838152602001828103825284818151815260200191508051906020019080838360005b8381101561314557808201518184015260208101905061312a565b50505050905090810190601f1680156131725780820380516001836020036101000a031916815260200191505b509350505050602060405180830381600087803b15801561319257600080fd5b505af11580156131a6573d6000803e3d6000fd5b505050506040513d60208110156131bc57600080fd5b81019080805190602001909291905050509150833a02670de0b6b3a7640000018211156131ef57600060010292506133ad565b6131f885613414565b9050600160009054906101000a900473ffffffffffffffffffffffffffffffffffffffff1673ffffffffffffffffffffffffffffffffffffffff1663c55c1cb68360008985896040518663ffffffff167c0100000000000000000000000000000000000000000000000000000000028152600401808581526020018060200180602001848152602001838103835286818151815260200191508051906020019080838360005b838110156132b957808201518184015260208101905061329e565b50505050905090810190601f1680156132e65780820380516001836020036101000a031916815260200191505b50838103825285818151815260200191508051906020019080838360005b8381101561331f578082015181840152602081019050613304565b50505050905090810190601f16801561334c5780820380516001836020036101000a031916815260200191505b5096505050505050506020604051808303818588803b15801561336e57600080fd5b505af1158015613382573d6000803e3d6000fd5b50505050506040513d602081101561339957600080fd5b810190808051906020019092919050505092505b50509392505050565b80600290805190602001906133cc92919061386d565b5050565b60008060008060405188815287602082015286604082015285606082015260208160808360006001610bb8f192508051915050818193509350505094509492505050565b606061341e6138ed565b6000613428613499565b613434826104006134a5565b61343d826134f5565b600090505b835181101561348257613475848281518110151561345c57fe5b906020019060200201518361350390919063ffffffff16565b8080600101915050613442565b61348b82613528565b816000015192505050919050565b60405180590338823950565b600081905060006020828115156134b857fe5b061415156134d5576020818115156134cc57fe5b06602003810190505b808360200181815250506040518084526000815281810160405250505050565b613500816004613536565b50565b613510826002835161355a565b61352381836136b390919063ffffffff16565b505050565b613533816007613536565b50565b613556601f60058360ff169060020a02178361375f90919063ffffffff16565b5050565b60178111151561358b576135868160058460ff169060020a0260ff16178461375f90919063ffffffff16565b6136ae565b60ff811115156135d1576135b5601860058460ff169060020a02178461375f90919063ffffffff16565b6135cb8160018561379f9092919063ffffffff16565b506136ad565b61ffff81111515613618576135fc601960058460ff169060020a02178461375f90919063ffffffff16565b6136128160028561379f9092919063ffffffff16565b506136ac565b63ffffffff8111151561366157613645601a60058460ff169060020a02178461375f90919063ffffffff16565b61365b8160048561379f9092919063ffffffff16565b506136ab565b67ffffffffffffffff811115156136aa57613692601b60058460ff169060020a02178461375f90919063ffffffff16565b6136a88160088561379f9092919063ffffffff16565b505b5b5b5b5b505050565b6136bb6138ed565b600080600080866020015187600001515187510111156136f1576136f08760026136ea8a602001518a51613806565b02613822565b5b8551915086518051602081830101955087518101825260208801945050505b6020821015156137355782518452602084019350602083019250602082039150613710565b6001826020036101000a039050801983511681855116818117865250508694505050505092915050565b8160200151600183600001515101111561378557613784826002846020015102613822565b5b815180516020818301018381536001820183525050505050565b6137a76138ed565b60008460200151856000015151840111156137d7576137d68560026137d0886020015187613806565b02613822565b5b6001836101000a0390508451805184818301018684198251161781528582018352505050849150509392505050565b6000818311156138185782905061381c565b8190505b92915050565b60608260000151905061383583836134a5565b61383f83826136b3565b50505050565b6080604051908101604052806004905b60608152602001906001900390816138555790505090565b828054600181600116156101000203166002900490600052602060002090601f016020900481019282601f106138ae57805160ff19168380011785556138dc565b828001600101855582156138dc579182015b828111156138db5782518255916020019190600101906138c0565b5b5090506138e99190613907565b5090565b604080519081016040528060608152602001600081525090565b61392991905b8082111561392557600081600090555060010161390d565b5090565b905600a165627a7a723058200fff9ad4c4511aa4f72d811c8ef81b22a22e7876f27638fceb6f413644b2c0a20029",
  "source": "pragma solidity ^0.4.24;\n\nimport \"../utils/usingOraclize.sol\";\n\ncontract RandomExample is usingOraclize {\n    \n    event newRandomNumber_bytes(bytes);\n    event newRandomNumber_uint(uint);\n\n    constructor() public {\n        oraclize_setProof(proofType_Ledger); // sets the Ledger authenticity proof in the constructor\n        update(); // let's ask for N random bytes immediately when the contract is created!\n    }\n    \n    // the callback function is called by Oraclize when the result is ready\n    // the oraclize_randomDS_proofVerify modifier prevents an invalid proof to execute this function code:\n    // the proof validity is fully verified on-chain\n    function __callback(bytes32 _queryId, string _result, bytes _proof) public { \n        require(msg.sender == oraclize_cbAddress());\n        \n        if (oraclize_randomDS_proofVerify__returnCode(_queryId, _result, _proof) != 0) {\n            // the proof verification has failed, do we need to take any action here? (depends on the use case)\n        } else {\n            // the proof verification has passed\n            // now that we know that the random number was safely generated, let's use it..\n            \n            emit newRandomNumber_bytes(bytes(_result)); // this is the resulting random number (bytes)\n            \n            // for simplicity of use, let's also convert the random bytes to uint if we need\n            // this is the highest uint we want to get. It should never be greater than 2^(8*N), where N is the number of random bytes we had asked the datasource to return\n            uint maxRange = 2**(8* 7);\n            uint randomNumber = uint(keccak256(abi.encodePacked(_result))) % maxRange; // this is an efficient way to get the uint out in the [0, maxRange] range\n            \n            emit newRandomNumber_uint(randomNumber); // this is the resulting random number (uint)\n        }\n    }\n    \n    function update() payable public {\n        uint N = 7; // number of random bytes we want the datasource to return\n        uint delay = 0; // number of seconds to wait before the execution takes place\n        uint callbackGas = 200000; // amount of gas we want Oraclize to set for the callback function\n        // this function internally generates the correct oraclize_query and returns its queryId\n        oraclize_newRandomDSQuery(delay, N, callbackGas); \n    }   \n}",
  "sourcePath": "/Users/pbrudny/jsy/truffle-challanges/contracts/21_rng_oraclize/RandomOraclize.sol",
  "compiler": {
    "name": "solc",
    "version": "0.4.24+commit.e67f0147.Emscripten.clang"
  },
  "schemaVersion": "2.0.1",
  "updatedAt": "2018-07-28T17:19:52.940Z"
}