{
  "contractName": "Roles",
  "abi": [
    {
      "constant": false,
      "inputs": [],
      "name": "renounceOwnership",
      "outputs": [],
      "payable": false,
      "stateMutability": "nonpayable",
      "type": "function"
    },
    {
      "constant": true,
      "inputs": [],
      "name": "owner",
      "outputs": [
        {
          "name": "",
          "type": "address"
        }
      ],
      "payable": false,
      "stateMutability": "view",
      "type": "function"
    },
    {
      "constant": false,
      "inputs": [
        {
          "name": "_newOwner",
          "type": "address"
        }
      ],
      "name": "transferOwnership",
      "outputs": [],
      "payable": false,
      "stateMutability": "nonpayable",
      "type": "function"
    },
    {
      "inputs": [],
      "payable": false,
      "stateMutability": "nonpayable",
      "type": "constructor"
    },
    {
      "anonymous": false,
      "inputs": [
        {
          "indexed": true,
          "name": "previousOwner",
          "type": "address"
        }
      ],
      "name": "OwnershipRenounced",
      "type": "event"
    },
    {
      "anonymous": false,
      "inputs": [
        {
          "indexed": true,
          "name": "previousOwner",
          "type": "address"
        },
        {
          "indexed": true,
          "name": "newOwner",
          "type": "address"
        }
      ],
      "name": "OwnershipTransferred",
      "type": "event"
    },
    {
      "constant": false,
      "inputs": [
        {
          "name": "_targetManager",
          "type": "address"
        },
        {
          "name": "_managerName",
          "type": "string"
        }
      ],
      "name": "addManager",
      "outputs": [],
      "payable": false,
      "stateMutability": "nonpayable",
      "type": "function"
    },
    {
      "constant": false,
      "inputs": [
        {
          "name": "_targetManager",
          "type": "address"
        }
      ],
      "name": "removeManager",
      "outputs": [],
      "payable": false,
      "stateMutability": "nonpayable",
      "type": "function"
    }
  ],
  "bytecode": "0x60806040523480156200001157600080fd5b50336000806101000a81548173ffffffffffffffffffffffffffffffffffffffff021916908373ffffffffffffffffffffffffffffffffffffffff16021790555033600160006101000a81548173ffffffffffffffffffffffffffffffffffffffff021916908373ffffffffffffffffffffffffffffffffffffffff160217905550620000bf6000602060405190810160405280600081525062000137640100000000026401000000009004565b62000131600160009054906101000a900473ffffffffffffffffffffffffffffffffffffffff166040805190810160405280600581526020017f6f776e657200000000000000000000000000000000000000000000000000000081525062000137640100000000026401000000009004565b6200049e565b60008060009054906101000a900473ffffffffffffffffffffffffffffffffffffffff1673ffffffffffffffffffffffffffffffffffffffff163373ffffffffffffffffffffffffffffffffffffffff161415156200019557600080fd5b600360008473ffffffffffffffffffffffffffffffffffffffff1673ffffffffffffffffffffffffffffffffffffffff16815260200190815260200160002054905060008114156200024357600280549050600360008573ffffffffffffffffffffffffffffffffffffffff1673ffffffffffffffffffffffffffffffffffffffff16815260200190815260200160002081905550600280548091906001016200024091906200030b565b90505b6060604051908101604052808473ffffffffffffffffffffffffffffffffffffffff168152602001428152602001838152506002828154811015156200028557fe5b906000526020600020906003020160008201518160000160006101000a81548173ffffffffffffffffffffffffffffffffffffffff021916908373ffffffffffffffffffffffffffffffffffffffff1602179055506020820151816001015560408201518160020190805190602001906200030292919062000340565b50905050505050565b8154818355818111156200033b576003028160030283600052602060002091820191016200033a9190620003c7565b5b505050565b828054600181600116156101000203166002900490600052602060002090601f016020900481019282601f106200038357805160ff1916838001178555620003b4565b82800160010185558215620003b4579182015b82811115620003b357825182559160200191906001019062000396565b5b509050620003c391906200042a565b5090565b6200042791905b808211156200042357600080820160006101000a81549073ffffffffffffffffffffffffffffffffffffffff0219169055600182016000905560028201600062000419919062000452565b50600301620003ce565b5090565b90565b6200044f91905b808211156200044b57600081600090555060010162000431565b5090565b90565b50805460018160011615610100020316600290046000825580601f106200047a57506200049b565b601f0160209004906000526020600020908101906200049a91906200042a565b5b50565b610a8480620004ae6000396000f30060806040526004361061006d576000357c0100000000000000000000000000000000000000000000000000000000900463ffffffff168063229c76eb14610072578063715018a6146100fb5780638da5cb5b14610112578063ac18de4314610169578063f2fde38b146101ac575b600080fd5b34801561007e57600080fd5b506100f9600480360381019080803573ffffffffffffffffffffffffffffffffffffffff169060200190929190803590602001908201803590602001908080601f01602080910402602001604051908101604052809392919081815260200183838082843782019150505050505091929192905050506101ef565b005b34801561010757600080fd5b506101106103bc565b005b34801561011e57600080fd5b506101276104be565b604051808273ffffffffffffffffffffffffffffffffffffffff1673ffffffffffffffffffffffffffffffffffffffff16815260200191505060405180910390f35b34801561017557600080fd5b506101aa600480360381019080803573ffffffffffffffffffffffffffffffffffffffff1690602001909291905050506104e3565b005b3480156101b857600080fd5b506101ed600480360381019080803573ffffffffffffffffffffffffffffffffffffffff1690602001909291905050506106f3565b005b60008060009054906101000a900473ffffffffffffffffffffffffffffffffffffffff1673ffffffffffffffffffffffffffffffffffffffff163373ffffffffffffffffffffffffffffffffffffffff1614151561024c57600080fd5b600360008473ffffffffffffffffffffffffffffffffffffffff1673ffffffffffffffffffffffffffffffffffffffff16815260200190815260200160002054905060008114156102f757600280549050600360008573ffffffffffffffffffffffffffffffffffffffff1673ffffffffffffffffffffffffffffffffffffffff16815260200190815260200160002081905550600280548091906001016102f49190610854565b90505b6060604051908101604052808473ffffffffffffffffffffffffffffffffffffffff1681526020014281526020018381525060028281548110151561033857fe5b906000526020600020906003020160008201518160000160006101000a81548173ffffffffffffffffffffffffffffffffffffffff021916908373ffffffffffffffffffffffffffffffffffffffff1602179055506020820151816001015560408201518160020190805190602001906103b3929190610886565b50905050505050565b6000809054906101000a900473ffffffffffffffffffffffffffffffffffffffff1673ffffffffffffffffffffffffffffffffffffffff163373ffffffffffffffffffffffffffffffffffffffff1614151561041757600080fd5b6000809054906101000a900473ffffffffffffffffffffffffffffffffffffffff1673ffffffffffffffffffffffffffffffffffffffff167ff8df31144d9c2f0f6b59d69b8b98abd5459d07f2742c4df920b25aae33c6482060405160405180910390a260008060006101000a81548173ffffffffffffffffffffffffffffffffffffffff021916908373ffffffffffffffffffffffffffffffffffffffff160217905550565b6000809054906101000a900473ffffffffffffffffffffffffffffffffffffffff1681565b6000806000600360008573ffffffffffffffffffffffffffffffffffffffff1673ffffffffffffffffffffffffffffffffffffffff168152602001908152602001600020541415151561053557600080fd5b600360008473ffffffffffffffffffffffffffffffffffffffff1673ffffffffffffffffffffffffffffffffffffffff1681526020019081526020016000205491508190505b6001600280549050038110156106715760026001820181548110151561059d57fe5b90600052602060002090600302016002828154811015156105ba57fe5b90600052602060002090600302016000820160009054906101000a900473ffffffffffffffffffffffffffffffffffffffff168160000160006101000a81548173ffffffffffffffffffffffffffffffffffffffff021916908373ffffffffffffffffffffffffffffffffffffffff1602179055506001820154816001015560028201816002019080546001816001161561010002031660029004610660929190610906565b50905050808060010191505061057b565b600260016002805490500381548110151561068857fe5b9060005260206000209060030201600080820160006101000a81549073ffffffffffffffffffffffffffffffffffffffff021916905560018201600090556002820160006106d6919061098d565b505060028054809190600190036106ed9190610854565b50505050565b6000809054906101000a900473ffffffffffffffffffffffffffffffffffffffff1673ffffffffffffffffffffffffffffffffffffffff163373ffffffffffffffffffffffffffffffffffffffff1614151561074e57600080fd5b6107578161075a565b50565b600073ffffffffffffffffffffffffffffffffffffffff168173ffffffffffffffffffffffffffffffffffffffff161415151561079657600080fd5b8073ffffffffffffffffffffffffffffffffffffffff166000809054906101000a900473ffffffffffffffffffffffffffffffffffffffff1673ffffffffffffffffffffffffffffffffffffffff167f8be0079c531659141344cd1fd0a4f28419497f9722a3daafe3b4186f6b6457e060405160405180910390a3806000806101000a81548173ffffffffffffffffffffffffffffffffffffffff021916908373ffffffffffffffffffffffffffffffffffffffff16021790555050565b8154818355818111156108815760030281600302836000526020600020918201910161088091906109d5565b5b505050565b828054600181600116156101000203166002900490600052602060002090601f016020900481019282601f106108c757805160ff19168380011785556108f5565b828001600101855582156108f5579182015b828111156108f45782518255916020019190600101906108d9565b5b5090506109029190610a33565b5090565b828054600181600116156101000203166002900490600052602060002090601f016020900481019282601f1061093f578054855561097c565b8280016001018555821561097c57600052602060002091601f016020900482015b8281111561097b578254825591600101919060010190610960565b5b5090506109899190610a33565b5090565b50805460018160011615610100020316600290046000825580601f106109b357506109d2565b601f0160209004906000526020600020908101906109d19190610a33565b5b50565b610a3091905b80821115610a2c57600080820160006101000a81549073ffffffffffffffffffffffffffffffffffffffff02191690556001820160009055600282016000610a23919061098d565b506003016109db565b5090565b90565b610a5591905b80821115610a51576000816000905550600101610a39565b5090565b905600a165627a7a723058202daaf688d6754efb774e9e49d7a5e1acf39f9d3810644c85c0e9a6b0911897440029",
  "source": "pragma solidity 0.4.24;\n\nimport \"zeppelin-solidity/contracts/ownership/Ownable.sol\";\n\ncontract Roles is Ownable {\n    address owner;\n    \n    struct Manager {\n        address manager;\n        uint managerSince;\n        string name;\n    }\n    \n    Manager[] managers;\n    mapping (address => uint) managerId;\n    \n    modifier onlyManager {\n        require(managerId[msg.sender] != 0, \"Only for managers\");\n        _;\n    }\n    \n    constructor() public {\n        owner = msg.sender;\n        addManager(0, \"\");\n        addManager(owner, \"owner\");\n    }\n    \n    function addManager(address _targetManager, string _managerName) public onlyOwner {\n        uint id = managerId[_targetManager];\n        if (id == 0) {\n            managerId[_targetManager] = managers.length;\n            id = managers.length++;\n        }\n        managers[id] = Manager({manager: _targetManager, managerSince: now, name: _managerName});\n    }\n    \n    function removeManager(address _targetManager) public {\n        require(managerId[_targetManager] != 0);\n        uint indexToRemove = managerId[_targetManager];\n        for(uint i = indexToRemove; i < managers.length-1; i++) {\n            managers[i] = managers[i+1];\n        }\n        delete managers[managers.length-1];\n        managers.length--;\n    }\n}",
  "sourcePath": "/Users/pbrudny/jsy/truffle-challanges/contracts/17_roles_management/Roles.sol",
  "compiler": {
    "name": "solc",
    "version": "0.4.24+commit.e67f0147.Emscripten.clang"
  },
  "schemaVersion": "2.0.1",
  "updatedAt": "2018-07-29T21:44:10.737Z"
}