{
  "contractName": "RouteManager",
  "abi": [
    {
      "constant": true,
      "inputs": [],
      "name": "owner",
      "outputs": [
        {
          "name": "",
          "type": "address"
        }
      ],
      "payable": false,
      "stateMutability": "view",
      "type": "function"
    },
    {
      "constant": true,
      "inputs": [
        {
          "name": "",
          "type": "uint256"
        }
      ],
      "name": "stops",
      "outputs": [
        {
          "name": "id",
          "type": "bytes4"
        },
        {
          "name": "name",
          "type": "bytes32"
        },
        {
          "name": "latitude",
          "type": "bytes10"
        },
        {
          "name": "longitude",
          "type": "bytes10"
        }
      ],
      "payable": false,
      "stateMutability": "view",
      "type": "function"
    },
    {
      "inputs": [],
      "payable": false,
      "stateMutability": "nonpayable",
      "type": "constructor"
    },
    {
      "constant": false,
      "inputs": [
        {
          "name": "_id",
          "type": "bytes4"
        },
        {
          "name": "_name",
          "type": "bytes32"
        },
        {
          "name": "_latitude",
          "type": "bytes10"
        },
        {
          "name": "_longitude",
          "type": "bytes10"
        }
      ],
      "name": "addStop",
      "outputs": [],
      "payable": false,
      "stateMutability": "nonpayable",
      "type": "function"
    },
    {
      "constant": true,
      "inputs": [
        {
          "name": "_n",
          "type": "uint256"
        }
      ],
      "name": "getStopId",
      "outputs": [
        {
          "name": "",
          "type": "bytes4"
        }
      ],
      "payable": false,
      "stateMutability": "view",
      "type": "function"
    },
    {
      "constant": true,
      "inputs": [],
      "name": "getStopCount",
      "outputs": [
        {
          "name": "",
          "type": "uint256"
        }
      ],
      "payable": false,
      "stateMutability": "view",
      "type": "function"
    }
  ],
  "bytecode": "0x608060405234801561001057600080fd5b50336000806101000a81548173ffffffffffffffffffffffffffffffffffffffff021916908373ffffffffffffffffffffffffffffffffffffffff1602179055506106b6806100606000396000f30060806040526004361061006d576000357c0100000000000000000000000000000000000000000000000000000000900463ffffffff1680635d46cde4146100725780638da5cb5b14610112578063d85fddbd14610169578063f07e301a146101e8578063fa9f3a59146102e8575b600080fd5b34801561007e57600080fd5b5061011060048036038101908080357bffffffffffffffffffffffffffffffffffffffffffffffffffffffff191690602001909291908035600019169060200190929190803575ffffffffffffffffffffffffffffffffffffffffffff19169060200190929190803575ffffffffffffffffffffffffffffffffffffffffffff19169060200190929190505050610313565b005b34801561011e57600080fd5b50610127610557565b604051808273ffffffffffffffffffffffffffffffffffffffff1673ffffffffffffffffffffffffffffffffffffffff16815260200191505060405180910390f35b34801561017557600080fd5b506101946004803603810190808035906020019092919050505061057c565b60405180827bffffffffffffffffffffffffffffffffffffffffffffffffffffffff19167bffffffffffffffffffffffffffffffffffffffffffffffffffffffff1916815260200191505060405180910390f35b3480156101f457600080fd5b50610213600480360381019080803590602001909291905050506105cf565b60405180857bffffffffffffffffffffffffffffffffffffffffffffffffffffffff19167bffffffffffffffffffffffffffffffffffffffffffffffffffffffff1916815260200184600019166000191681526020018375ffffffffffffffffffffffffffffffffffffffffffff191675ffffffffffffffffffffffffffffffffffffffffffff191681526020018275ffffffffffffffffffffffffffffffffffffffffffff191675ffffffffffffffffffffffffffffffffffffffffffff1916815260200194505050505060405180910390f35b3480156102f457600080fd5b506102fd61067d565b6040518082815260200191505060405180910390f35b6000809054906101000a900473ffffffffffffffffffffffffffffffffffffffff1673ffffffffffffffffffffffffffffffffffffffff163373ffffffffffffffffffffffffffffffffffffffff161415156103d7576040517f08c379a000000000000000000000000000000000000000000000000000000000815260040180806020018281038252600d8152602001807f6d757374206265206f776e65720000000000000000000000000000000000000081525060200191505060405180910390fd5b6001608060405190810160405280867bffffffffffffffffffffffffffffffffffffffffffffffffffffffff19168152602001856000191681526020018475ffffffffffffffffffffffffffffffffffffffffffff191681526020018375ffffffffffffffffffffffffffffffffffffffffffff19168152509080600181540180825580915050906001820390600052602060002090600302016000909192909190915060008201518160000160006101000a81548163ffffffff02191690837c0100000000000000000000000000000000000000000000000000000000900402179055506020820151816001019060001916905560408201518160020160006101000a81548169ffffffffffffffffffff021916908376010000000000000000000000000000000000000000000090040217905550606082015181600201600a6101000a81548169ffffffffffffffffffff02191690837601000000000000000000000000000000000000000000009004021790555050505050505050565b6000809054906101000a900473ffffffffffffffffffffffffffffffffffffffff1681565b600060018281548110151561058d57fe5b906000526020600020906003020160000160009054906101000a90047c0100000000000000000000000000000000000000000000000000000000029050919050565b6001818154811015156105de57fe5b90600052602060002090600302016000915090508060000160009054906101000a90047c010000000000000000000000000000000000000000000000000000000002908060010154908060020160009054906101000a9004760100000000000000000000000000000000000000000000029080600201600a9054906101000a900476010000000000000000000000000000000000000000000002905084565b60006001805490509050905600a165627a7a72305820e4aaa9268d5a502c04b78efbc71545bdf82f64123d2ca666a1ac6e7a949e75910029",
  "source": "pragma solidity ^0.4.24;\n\ncontract RouteManager {\n    address public owner;  \n\n    struct Stop {\n        bytes4 id;\n        bytes32 name;\n        bytes10 latitude;\n        bytes10 longitude;  \n    }\n\n    Stop[] public stops;\n\n    constructor() public {\n        owner = msg.sender;\n    }\n\n    modifier isOwner() {\n        require(msg.sender == owner, \"must be owner\");\n        _;\n    }\n\n    function addStop(\n        bytes4 _id,\n        bytes32 _name, \n        bytes10 _latitude, \n        bytes10 _longitude\n    ) public isOwner {\n        stops.push(Stop(_id, _name, _latitude, _longitude));    \n    }\n\n    function getStopId(uint _n) public view returns(bytes4) {\n        return stops[_n].id;\n    }\n\n    function getStopCount() public view returns(uint) {\n        return stops.length;\n    }    \n}",
  "sourcePath": "/Users/pbrudny/jsy/truffle-challanges/contracts/13_route_manager/RouteManager.sol",
  "compiler": {
    "name": "solc",
    "version": "0.4.24+commit.e67f0147.Emscripten.clang"
  },
  "schemaVersion": "2.0.1",
  "updatedAt": "2018-07-28T17:19:56.468Z"
}