{
  "contractName": "StringConverter",
  "abi": [
    {
      "constant": true,
      "inputs": [
        {
          "name": "source",
          "type": "string"
        }
      ],
      "name": "stringToBytes32",
      "outputs": [
        {
          "name": "result",
          "type": "bytes32"
        }
      ],
      "payable": false,
      "stateMutability": "pure",
      "type": "function"
    }
  ],
  "bytecode": "0x608060405234801561001057600080fd5b5061011b806100206000396000f300608060405260043610603f576000357c0100000000000000000000000000000000000000000000000000000000900463ffffffff168063cfb51928146044575b600080fd5b348015604f57600080fd5b5060a8600480360381019080803590602001908201803590602001908080601f016020809104026020016040519081016040528093929190818152602001838380828437820191505050505050919291929050505060c6565b60405180826000191660001916815260200191505060405180910390f35b6000606082905060008151141560e1576000600102915060e9565b602083015191505b509190505600a165627a7a72305820b6b5d5b6969ee58193a7ab4ed02a059c1c45167a80768cbec583c311a14a2d480029",
  "source": "pragma solidity ^0.4.24;\n\ncontract StringConverter {\n    function stringToBytes32(string memory source) public pure returns (bytes32 result) {\n        bytes memory tempEmptyStringTest = bytes(source);\n        if (tempEmptyStringTest.length == 0) {\n            return 0x0;\n        }\n    \n        assembly {\n            result := mload(add(source, 32))\n        }\n    }\n}\n",
  "sourcePath": "/Users/pbrudny/jsy/truffle-challanges/contracts/12_string_converter/StringConverter.sol",
  "compiler": {
    "name": "solc",
    "version": "0.4.24+commit.e67f0147.Emscripten.clang"
  },
  "schemaVersion": "2.0.1",
  "updatedAt": "2018-07-29T22:58:41.856Z"
}