{
  "contractName": "SwarmOraclize",
  "abi": [
    {
      "constant": true,
      "inputs": [],
      "name": "fileContent",
      "outputs": [
        {
          "name": "",
          "type": "string"
        }
      ],
      "payable": false,
      "stateMutability": "view",
      "type": "function"
    },
    {
      "inputs": [],
      "payable": true,
      "stateMutability": "payable",
      "type": "constructor"
    },
    {
      "anonymous": false,
      "inputs": [
        {
          "indexed": false,
          "name": "description",
          "type": "string"
        }
      ],
      "name": "newOraclizeQuery",
      "type": "event"
    },
    {
      "anonymous": false,
      "inputs": [
        {
          "indexed": false,
          "name": "swarmContent",
          "type": "string"
        }
      ],
      "name": "newSwarmContent",
      "type": "event"
    },
    {
      "constant": false,
      "inputs": [
        {
          "name": "myid",
          "type": "bytes32"
        },
        {
          "name": "result",
          "type": "string"
        }
      ],
      "name": "__callback",
      "outputs": [],
      "payable": false,
      "stateMutability": "nonpayable",
      "type": "function"
    },
    {
      "constant": false,
      "inputs": [
        {
          "name": "myid",
          "type": "bytes32"
        },
        {
          "name": "result",
          "type": "string"
        },
        {
          "name": "proof",
          "type": "bytes"
        }
      ],
      "name": "__callback",
      "outputs": [],
      "payable": false,
      "stateMutability": "nonpayable",
      "type": "function"
    },
    {
      "constant": false,
      "inputs": [
        {
          "name": "result",
          "type": "string"
        }
      ],
      "name": "__callback",
      "outputs": [],
      "payable": false,
      "stateMutability": "nonpayable",
      "type": "function"
    },
    {
      "constant": false,
      "inputs": [],
      "name": "update",
      "outputs": [],
      "payable": true,
      "stateMutability": "payable",
      "type": "function"
    }
  ],
  "bytecode": "0x60806040526200001d62000023640100000000026401000000009004565b62000d8e565b7f46cb989ef9cef13e930e3b7f286225a086e716a90d63e0b7da85d310a9db0c9a6040518080602001828103825260358152602001807f4f7261636c697a65207175657279207761732073656e742c207374616e64696e81526020017f6720627920666f722074686520616e737765722e2e000000000000000000000081525060400191505060405180910390a16200015d6040805190810160405280600581526020017f737761726d000000000000000000000000000000000000000000000000000000815250606060405190810160405280604081526020017f613933306165336566306236316237643133303164353233623137346532343281526020017f626531333739343531303761393938373465646565306332353366653263613081525062000160640100000000026401000000009004565b50565b60008060008060009054906101000a900473ffffffffffffffffffffffffffffffffffffffff1673ffffffffffffffffffffffffffffffffffffffff161480620001e457506000620001e26000809054906101000a900473ffffffffffffffffffffffffffffffffffffffff166200073e640100000000026401000000009004565b145b15620002075762000205600062000749640100000000026401000000009004565b505b6000809054906101000a900473ffffffffffffffffffffffffffffffffffffffff1673ffffffffffffffffffffffffffffffffffffffff166338cc48316040518163ffffffff167c0100000000000000000000000000000000000000000000000000000000028152600401602060405180830381600087803b1580156200028d57600080fd5b505af1158015620002a2573d6000803e3d6000fd5b505050506040513d6020811015620002b957600080fd5b810190808051906020019092919050505073ffffffffffffffffffffffffffffffffffffffff16600160009054906101000a900473ffffffffffffffffffffffffffffffffffffffff1673ffffffffffffffffffffffffffffffffffffffff1614151562000425576000809054906101000a900473ffffffffffffffffffffffffffffffffffffffff1673ffffffffffffffffffffffffffffffffffffffff166338cc48316040518163ffffffff167c0100000000000000000000000000000000000000000000000000000000028152600401602060405180830381600087803b158015620003a757600080fd5b505af1158015620003bc573d6000803e3d6000fd5b505050506040513d6020811015620003d357600080fd5b8101908080519060200190929190505050600160006101000a81548173ffffffffffffffffffffffffffffffffffffffff021916908373ffffffffffffffffffffffffffffffffffffffff1602179055505b600160009054906101000a900473ffffffffffffffffffffffffffffffffffffffff1673ffffffffffffffffffffffffffffffffffffffff1663524f3889856040518263ffffffff167c01000000000000000000000000000000000000000000000000000000000281526004018080602001828103825283818151815260200191508051906020019080838360005b83811015620004d1578082015181840152602081019050620004b4565b50505050905090810190601f168015620004ff5780820380516001836020036101000a031916815260200191505b5092505050602060405180830381600087803b1580156200051f57600080fd5b505af115801562000534573d6000803e3d6000fd5b505050506040513d60208110156200054b57600080fd5b8101908080519060200190929190505050905062030d403a02670de0b6b3a76400000181111562000583576000600102915062000737565b600160009054906101000a900473ffffffffffffffffffffffffffffffffffffffff1673ffffffffffffffffffffffffffffffffffffffff1663adf59f9982600087876040518563ffffffff167c0100000000000000000000000000000000000000000000000000000000028152600401808481526020018060200180602001838103835285818151815260200191508051906020019080838360005b838110156200063d57808201518184015260208101905062000620565b50505050905090810190601f1680156200066b5780820380516001836020036101000a031916815260200191505b50838103825284818151815260200191508051906020019080838360005b83811015620006a657808201518184015260208101905062000689565b50505050905090810190601f168015620006d45780820380516001836020036101000a031916815260200191505b50955050505050506020604051808303818588803b158015620006f657600080fd5b505af11580156200070b573d6000803e3d6000fd5b50505050506040513d60208110156200072357600080fd5b810190808051906020019092919050505091505b5092915050565b6000813b9050919050565b6000620007646200076b640100000000026401000000009004565b9050919050565b6000806200079c731d3b2638a7cc9f2cb3d298a3da7a90b67e5506ed6200073e640100000000026401000000009004565b11156200085057731d3b2638a7cc9f2cb3d298a3da7a90b67e5506ed6000806101000a81548173ffffffffffffffffffffffffffffffffffffffff021916908373ffffffffffffffffffffffffffffffffffffffff160217905550620008466040805190810160405280600b81526020017f6574685f6d61696e6e657400000000000000000000000000000000000000000081525062000cc3640100000000026401000000009004565b6001905062000cc0565b60006200088073c03a2615d5efaf5f49f60b7bb6583eaec212fdf16200073e640100000000026401000000009004565b1115620009345773c03a2615d5efaf5f49f60b7bb6583eaec212fdf16000806101000a81548173ffffffffffffffffffffffffffffffffffffffff021916908373ffffffffffffffffffffffffffffffffffffffff1602179055506200092a6040805190810160405280600c81526020017f6574685f726f707374656e33000000000000000000000000000000000000000081525062000cc3640100000000026401000000009004565b6001905062000cc0565b60006200096473b7a07bcf2ba2f2703b24c0691b5278999c59ac7e6200073e640100000000026401000000009004565b111562000a185773b7a07bcf2ba2f2703b24c0691b5278999c59ac7e6000806101000a81548173ffffffffffffffffffffffffffffffffffffffff021916908373ffffffffffffffffffffffffffffffffffffffff16021790555062000a0e6040805190810160405280600981526020017f6574685f6b6f76616e000000000000000000000000000000000000000000000081525062000cc3640100000000026401000000009004565b6001905062000cc0565b600062000a4873146500cfd35b22e4a392fe0adc06de1a1368ed486200073e640100000000026401000000009004565b111562000afc5773146500cfd35b22e4a392fe0adc06de1a1368ed486000806101000a81548173ffffffffffffffffffffffffffffffffffffffff021916908373ffffffffffffffffffffffffffffffffffffffff16021790555062000af26040805190810160405280600b81526020017f6574685f72696e6b65627900000000000000000000000000000000000000000081525062000cc3640100000000026401000000009004565b6001905062000cc0565b600062000b2c736f485c8bf6fc43ea212e93bbf8ce046c7f1cb4756200073e640100000000026401000000009004565b111562000b9157736f485c8bf6fc43ea212e93bbf8ce046c7f1cb4756000806101000a81548173ffffffffffffffffffffffffffffffffffffffff021916908373ffffffffffffffffffffffffffffffffffffffff1602179055506001905062000cc0565b600062000bc17320e12a1f859b3feae5fb2a0a32c18f5a65555bbf6200073e640100000000026401000000009004565b111562000c26577320e12a1f859b3feae5fb2a0a32c18f5a65555bbf6000806101000a81548173ffffffffffffffffffffffffffffffffffffffff021916908373ffffffffffffffffffffffffffffffffffffffff1602179055506001905062000cc0565b600062000c567351efaf4c8b3c9afbd5ab9f4bbc82784ab6ef8faa6200073e640100000000026401000000009004565b111562000cbb577351efaf4c8b3c9afbd5ab9f4bbc82784ab6ef8faa6000806101000a81548173ffffffffffffffffffffffffffffffffffffffff021916908373ffffffffffffffffffffffffffffffffffffffff1602179055506001905062000cc0565b600090505b90565b806002908051906020019062000cdb92919062000cdf565b5050565b828054600181600116156101000203166002900490600052602060002090601f016020900481019282601f1062000d2257805160ff191683800117855562000d53565b8280016001018555821562000d53579182015b8281111562000d5257825182559160200191906001019062000d35565b5b50905062000d62919062000d66565b5090565b62000d8b91905b8082111562000d8757600081600090555060010162000d6d565b5090565b90565b6114488062000d9e6000396000f30060806040526004361061006d576000357c0100000000000000000000000000000000000000000000000000000000900463ffffffff16806327dc297e1461007257806338bbfa50146100e9578063a2e62045146101a6578063a324b3a8146101b0578063e1d8d66a14610240575b600080fd5b34801561007e57600080fd5b506100e76004803603810190808035600019169060200190929190803590602001908201803590602001908080601f01602080910402602001604051908101604052809392919081815260200183838082843782019150505050505091929192905050506102a9565b005b3480156100f557600080fd5b506101a46004803603810190808035600019169060200190929190803590602001908201803590602001908080601f0160208091040260200160405190810160405280939291908181526020018383808284378201915050505050509192919290803590602001908201803590602001908080601f01602080910402602001604051908101604052809392919081815260200183838082843782019150505050505091929192905050506102ec565b005b6101ae6102f1565b005b3480156101bc57600080fd5b506101c561041d565b6040518080602001828103825283818151815260200191508051906020019080838360005b838110156102055780820151818401526020810190506101ea565b50505050905090810190601f1680156102325780820380516001836020036101000a031916815260200191505b509250505060405180910390f35b34801561024c57600080fd5b506102a7600480360381019080803590602001908201803590602001908080601f01602080910402602001604051908101604052809392919081815260200183838082843782019150505050505091929192905050506104bb565b005b6102e8828260006040519080825280601f01601f1916602001820160405280156102e25781602001602082028038833980820191505090505b506102ec565b5050565b505050565b7f46cb989ef9cef13e930e3b7f286225a086e716a90d63e0b7da85d310a9db0c9a6040518080602001828103825260358152602001807f4f7261636c697a65207175657279207761732073656e742c207374616e64696e81526020017f6720627920666f722074686520616e737765722e2e000000000000000000000081525060400191505060405180910390a161041a6040805190810160405280600581526020017f737761726d000000000000000000000000000000000000000000000000000000815250606060405190810160405280604081526020017f613933306165336566306236316237643133303164353233623137346532343281526020017f62653133373934353130376139393837346564656530633235336665326361308152506105b2565b50565b60058054600181600116156101000203166002900480601f0160208091040260200160405190810160405280929190818152602001828054600181600116156101000203166002900480156104b35780601f10610488576101008083540402835291602001916104b3565b820191906000526020600020905b81548152906001019060200180831161049657829003601f168201915b505050505081565b6104c3610b54565b73ffffffffffffffffffffffffffffffffffffffff163373ffffffffffffffffffffffffffffffffffffffff161415156104fc57600080fd5b7f042e5d6fd0273b06a69049ef53db9583b61f6197455927dc2721b38506d1a362816040518080602001828103825283818151815260200191508051906020019080838360005b8381101561055e578082015181840152602081019050610543565b50505050905090810190601f16801561058b5780820380516001836020036101000a031916815260200191505b509250505060405180910390a180600590805190602001906105ae929190611377565b5050565b60008060008060009054906101000a900473ffffffffffffffffffffffffffffffffffffffff1673ffffffffffffffffffffffffffffffffffffffff161480610624575060006106226000809054906101000a900473ffffffffffffffffffffffffffffffffffffffff16610eb2565b145b15610635576106336000610ebd565b505b6000809054906101000a900473ffffffffffffffffffffffffffffffffffffffff1673ffffffffffffffffffffffffffffffffffffffff166338cc48316040518163ffffffff167c0100000000000000000000000000000000000000000000000000000000028152600401602060405180830381600087803b1580156106ba57600080fd5b505af11580156106ce573d6000803e3d6000fd5b505050506040513d60208110156106e457600080fd5b810190808051906020019092919050505073ffffffffffffffffffffffffffffffffffffffff16600160009054906101000a900473ffffffffffffffffffffffffffffffffffffffff1673ffffffffffffffffffffffffffffffffffffffff1614151561084c576000809054906101000a900473ffffffffffffffffffffffffffffffffffffffff1673ffffffffffffffffffffffffffffffffffffffff166338cc48316040518163ffffffff167c0100000000000000000000000000000000000000000000000000000000028152600401602060405180830381600087803b1580156107d057600080fd5b505af11580156107e4573d6000803e3d6000fd5b505050506040513d60208110156107fa57600080fd5b8101908080519060200190929190505050600160006101000a81548173ffffffffffffffffffffffffffffffffffffffff021916908373ffffffffffffffffffffffffffffffffffffffff1602179055505b600160009054906101000a900473ffffffffffffffffffffffffffffffffffffffff1673ffffffffffffffffffffffffffffffffffffffff1663524f3889856040518263ffffffff167c01000000000000000000000000000000000000000000000000000000000281526004018080602001828103825283818151815260200191508051906020019080838360005b838110156108f65780820151818401526020810190506108db565b50505050905090810190601f1680156109235780820380516001836020036101000a031916815260200191505b5092505050602060405180830381600087803b15801561094257600080fd5b505af1158015610956573d6000803e3d6000fd5b505050506040513d602081101561096c57600080fd5b8101908080519060200190929190505050905062030d403a02670de0b6b3a7640000018111156109a25760006001029150610b4d565b600160009054906101000a900473ffffffffffffffffffffffffffffffffffffffff1673ffffffffffffffffffffffffffffffffffffffff1663adf59f9982600087876040518563ffffffff167c0100000000000000000000000000000000000000000000000000000000028152600401808481526020018060200180602001838103835285818151815260200191508051906020019080838360005b83811015610a5a578082015181840152602081019050610a3f565b50505050905090810190601f168015610a875780820380516001836020036101000a031916815260200191505b50838103825284818151815260200191508051906020019080838360005b83811015610ac0578082015181840152602081019050610aa5565b50505050905090810190601f168015610aed5780820380516001836020036101000a031916815260200191505b50955050505050506020604051808303818588803b158015610b0e57600080fd5b505af1158015610b22573d6000803e3d6000fd5b50505050506040513d6020811015610b3957600080fd5b810190808051906020019092919050505091505b5092915050565b6000806000809054906101000a900473ffffffffffffffffffffffffffffffffffffffff1673ffffffffffffffffffffffffffffffffffffffff161480610bc457506000610bc26000809054906101000a900473ffffffffffffffffffffffffffffffffffffffff16610eb2565b145b15610bd557610bd36000610ebd565b505b6000809054906101000a900473ffffffffffffffffffffffffffffffffffffffff1673ffffffffffffffffffffffffffffffffffffffff166338cc48316040518163ffffffff167c0100000000000000000000000000000000000000000000000000000000028152600401602060405180830381600087803b158015610c5a57600080fd5b505af1158015610c6e573d6000803e3d6000fd5b505050506040513d6020811015610c8457600080fd5b810190808051906020019092919050505073ffffffffffffffffffffffffffffffffffffffff16600160009054906101000a900473ffffffffffffffffffffffffffffffffffffffff1673ffffffffffffffffffffffffffffffffffffffff16141515610dec576000809054906101000a900473ffffffffffffffffffffffffffffffffffffffff1673ffffffffffffffffffffffffffffffffffffffff166338cc48316040518163ffffffff167c0100000000000000000000000000000000000000000000000000000000028152600401602060405180830381600087803b158015610d7057600080fd5b505af1158015610d84573d6000803e3d6000fd5b505050506040513d6020811015610d9a57600080fd5b8101908080519060200190929190505050600160006101000a81548173ffffffffffffffffffffffffffffffffffffffff021916908373ffffffffffffffffffffffffffffffffffffffff1602179055505b600160009054906101000a900473ffffffffffffffffffffffffffffffffffffffff1673ffffffffffffffffffffffffffffffffffffffff1663c281d19e6040518163ffffffff167c0100000000000000000000000000000000000000000000000000000000028152600401602060405180830381600087803b158015610e7257600080fd5b505af1158015610e86573d6000803e3d6000fd5b505050506040513d6020811015610e9c57600080fd5b8101908080519060200190929190505050905090565b6000813b9050919050565b6000610ec7610ece565b9050919050565b600080610eee731d3b2638a7cc9f2cb3d298a3da7a90b67e5506ed610eb2565b1115610f8f57731d3b2638a7cc9f2cb3d298a3da7a90b67e5506ed6000806101000a81548173ffffffffffffffffffffffffffffffffffffffff021916908373ffffffffffffffffffffffffffffffffffffffff160217905550610f866040805190810160405280600b81526020017f6574685f6d61696e6e657400000000000000000000000000000000000000000081525061135d565b6001905061135a565b6000610fae73c03a2615d5efaf5f49f60b7bb6583eaec212fdf1610eb2565b111561104f5773c03a2615d5efaf5f49f60b7bb6583eaec212fdf16000806101000a81548173ffffffffffffffffffffffffffffffffffffffff021916908373ffffffffffffffffffffffffffffffffffffffff1602179055506110466040805190810160405280600c81526020017f6574685f726f707374656e33000000000000000000000000000000000000000081525061135d565b6001905061135a565b600061106e73b7a07bcf2ba2f2703b24c0691b5278999c59ac7e610eb2565b111561110f5773b7a07bcf2ba2f2703b24c0691b5278999c59ac7e6000806101000a81548173ffffffffffffffffffffffffffffffffffffffff021916908373ffffffffffffffffffffffffffffffffffffffff1602179055506111066040805190810160405280600981526020017f6574685f6b6f76616e000000000000000000000000000000000000000000000081525061135d565b6001905061135a565b600061112e73146500cfd35b22e4a392fe0adc06de1a1368ed48610eb2565b11156111cf5773146500cfd35b22e4a392fe0adc06de1a1368ed486000806101000a81548173ffffffffffffffffffffffffffffffffffffffff021916908373ffffffffffffffffffffffffffffffffffffffff1602179055506111c66040805190810160405280600b81526020017f6574685f72696e6b65627900000000000000000000000000000000000000000081525061135d565b6001905061135a565b60006111ee736f485c8bf6fc43ea212e93bbf8ce046c7f1cb475610eb2565b111561125157736f485c8bf6fc43ea212e93bbf8ce046c7f1cb4756000806101000a81548173ffffffffffffffffffffffffffffffffffffffff021916908373ffffffffffffffffffffffffffffffffffffffff1602179055506001905061135a565b60006112707320e12a1f859b3feae5fb2a0a32c18f5a65555bbf610eb2565b11156112d3577320e12a1f859b3feae5fb2a0a32c18f5a65555bbf6000806101000a81548173ffffffffffffffffffffffffffffffffffffffff021916908373ffffffffffffffffffffffffffffffffffffffff1602179055506001905061135a565b60006112f27351efaf4c8b3c9afbd5ab9f4bbc82784ab6ef8faa610eb2565b1115611355577351efaf4c8b3c9afbd5ab9f4bbc82784ab6ef8faa6000806101000a81548173ffffffffffffffffffffffffffffffffffffffff021916908373ffffffffffffffffffffffffffffffffffffffff1602179055506001905061135a565b600090505b90565b8060029080519060200190611373929190611377565b5050565b828054600181600116156101000203166002900490600052602060002090601f016020900481019282601f106113b857805160ff19168380011785556113e6565b828001600101855582156113e6579182015b828111156113e55782518255916020019190600101906113ca565b5b5090506113f391906113f7565b5090565b61141991905b808211156114155760008160009055506001016113fd565b5090565b905600a165627a7a723058206515ec24e1591167d8739ba00fb5024714d46af3521d0ca48bd96a6bd34228eb0029",
  "source": "/*\n  Swarm installation: https://swarm-guide.readthedocs.io/en/latest/installation.html#installing-swarm-from-a-package-manager\n  Swarm upload to the public gateway: https://swarm-guide.readthedocs.io/en/latest/up-and-download.html#uploading-to-a-remote-swarm-node  \n*/\npragma solidity ^0.4.24;\n\nimport \"../utils/usingOraclize.sol\";\n\ncontract SwarmOraclize is usingOraclize {\n    string public fileContent;\n\n    event newOraclizeQuery(string description);\n    event newSwarmContent(string swarmContent);\n\n    constructor() public payable {\n        update();\n    }\n\n    function __callback(string result) public {\n        require(msg.sender == oraclize_cbAddress());\n        emit newSwarmContent(result);\n        fileContent = result; \n    }\n\n    function update() public payable {\n        emit newOraclizeQuery(\"Oraclize query was sent, standing by for the answer..\");\n        oraclize_query(\"swarm\", \"a930ae3ef0b61b7d1301d523b174e242be137945107a99874edee0c253fe2ca0\");\n    }\n}",
  "sourcePath": "/Users/pbrudny/jsy/truffle-challanges/contracts/26_swarm_oraclize/SwarmOraclize.sol",
  "compiler": {
    "name": "solc",
    "version": "0.4.24+commit.e67f0147.Emscripten.clang"
  },
  "schemaVersion": "2.0.1",
  "updatedAt": "2018-07-28T17:19:52.945Z"
}